:100000000C94D0010C94ED010C94ED010C94ED01D5
:100010000C94ED010C94ED010C94ED010C94ED01A8
:100020000C94ED010C94ED010C94FF1E0C94D31F65
:100030000C9431190C94ED010C94ED010C94ED012C
:100040000C94ED010C94ED010C94ED010C94ED0178
:100050000C94ED010C94B8190C94ED010C94ED0185
:100060000C94ED010C94ED010C94ED010C94ED0158
:100070000C94ED010C94ED010C94ED010C94ED0148
:100080000C94ED010C94ED010C94ED010C94ED0138
:100090000C94ED010C94ED010C94ED010C94ED0128
:1000A0000C94ED010C94ED010C94ED0129002B0052
:1000B0003500E100000000001E00140004001D00D7
:1000C000E00000001F001A0016001B00E200000004
:1000D0002000080007000600E300280021001500AA
:1000E0000900190021520000220017000A00050033
:1000F00028000000000000000000000000000000D8
:1001000000000000000000000000000023001C00B0
:100110000B0011002C000000240018000D0010003E
:100120002152000025000C000E00360000002C00BB
:10013000260012000F0037003100000027001300D6
:1001400033003800E50000002A002F0034003000A2
:100150004C00000029002B003500E10000000000E9
:10016000000000000000000000000000000000008F
:10017000000000000000000000000000000000007F
:100180000000280000000000000000000100000046
:100190000000000000000000280000000000000037
:1001A000000000000000000000000000000000004F
:1001B0000000000000000000500000002C000000C3
:1001C00000000000510000000100000000000000DD
:1001D0005200000000002C002D0000004F00000025
:1001E000000000002E00000000002F003000000082
:1001F0002A0000000000E500000000001603450092
:10020000720067006F0044006F0078002000450016
:100210005A00000028035A005300410020005400F7
:100220006500630068006E006F006C006F0067007F
:10023000790020004C00610062007300000004039C
:10024000090409025400030100A0FA090400000196
:100250000301010009211101000122440007058169
:100260000308000109040100010301020009211132
:10027000010001224700070582030800010904026A
:10028000000103000000092111010001226D000797
:1002900005830320000112010002000000089732CC
:1002A000744901000102000105010980A1018503D3
:1002B00019012AB700150126B700950175108100B4
:1002C000C0050C0901A101850419012AA00215012C
:1002D00026A002950175108100C005010906A10143
:1002E0008506050719E029E7150025019508750120
:1002F00081020507190029EF1500250195F0750108
:1003000081020508190129059505750191029501DC
:1003100075039101C005010902A1010901A10005B0
:1003200009190129081500250195087501810205A3
:1003300001093009311581257F950275088106096B
:10034000381581257F950175088106050C0A38024C
:100350001581257F950175088106C0C00501090634
:10036000A101050719E029E7150025019508750188
:1003700081029501750881010507190029FF150003
:1003800026FF009506750881000508190129051545
:10039000002501950575019102950175039101C034
:1003A00011241FBECFEFDAE0DEBFCDBF11E0A0E029
:1003B000B1E0E0E6F7E402C005900D92AC39B10778
:1003C000D9F722E0ACE9B1E001C01D92AE3EB20720
:1003D000E1F70E9438130C946F230C94000080986E
:1003E000889A8198899A84988C9A85988D9A86980B
:1003F0008E9A87988F9A08952098289821982998FE
:1004000022982A9823982B9852985A9853985B9838
:100410003E9846980895CF93C82F873078F58091FD
:10042000060190910701892B39F564E670E080E4BC
:100430000E941F1A9093070180930601892BD1F423
:1004400064E670E082E10E948B1A9093070180932A
:100450000601892B79F481E090E001C0880FCA95EC
:10046000EAF764E670E080950E948B1A909307018A
:10047000809306010E94DC1ACF9108958A30B1F072
:1004800038F4883069F0893071F0209A2898F4CFD8
:100490008C3091F070F08D30C1F73E9A4698ECCFD9
:1004A000219A2998E9CF229A2A98E6CF239A2B9865
:1004B000E3CF529A5A98E0CF539A5B98DDCFCF930F
:1004C000873050F58091060190910701C0E0892B9B
:1004D00071F464E670E081E40E941F1A90930701B2
:1004E00080930601892B31F0C0E00E94DC1A8C2F2A
:1004F000CF91089584E690E00E94B91A97FF05C055
:100500009093070180930601EFCFC82FC0951092FA
:10051000070110920601E9CFCFB18FB1869586957C
:100520008C73C3708C2BC82FC095E1CF0E94A003A1
:1005300090E090930701809306010E94FC010E94C5
:10054000EF010895EF92FF920F931F93CF93DF93E4
:100550008091060190910701892B91F080919E0175
:100560008F5F80939E0181110BC00E94A00390E0D9
:100570009093070180930601892B11F40E943303A5
:100580000DEB12E0C0E0D0E087E0E82EEC0E8C2FFF
:100590000E940B028E2D0E940B028C2F0E945F0284
:1005A0008F73F80191918F01F12C891721F0319708
:1005B0008083FF24F3948E2D0E945F028F73F801D5
:1005C0009681891779F0868381E08F29D82B0E9444
:1005D000FC01CF5FC730C1F68D2FCDB7DEB7E6E0A7
:1005E0000C94D02180E0F1CF0E94A00390E0909382
:1005F0000701809306010E94FC010E94EF01EBECD1
:10060000F2E0119282E0E93DF807D9F70895259AC2
:100610002D9A0895269A2E9A0895279A2F9A08952A
:1006200056985E98089525982D98089526982E98A6
:10063000089527982F9808950E9410030E9413038D
:100640000E9416030E941903089590E09093890078
:100650008093880090938B0080938A0090938D0004
:1006600080938C0008950E941C038FEF0E94250345
:100670000E9407032FEF80E792E0215080409040D6
:10068000E1F700C000000E940A032FEF80E792E02C
:10069000215080409040E1F700C000000E940D030F
:1006A0002FEF80E792E0215080409040E1F700C0BA
:1006B00000000E9413032FEF80E792E0215080405A
:1006C0009040E1F700C000000E9416032FEF80E782
:1006D00092E0215080409040E1F700C000000E946D
:1006E00019030E941C03089589EA8093800089E021
:1006F0008093810024982C983F988AB18F7C8AB986
:100700006E98479A8BB180638BB9769A0E94C20E1D
:100710006093B7027093B8028093B9029093BA02C3
:1007200067702FEF629FC00111249595879595956D
:1007300087950E9425030E9433030E945712089553
:1007400080E290E0909307018093060180919F01E1
:1007500081110EC00E94191A81E080939F012FEF32
:1007600083ED90E3215080409040E1F700C000000D
:1007700064E670E080E40E941F1A90930701809362
:100780000601892B09F04EC064E670E080E00E940B
:100790008B1A9093070180930601892B09F042C0C0
:1007A00064E670E080E00E948B1A909307018093CA
:1007B0000601892BB9F564E670E08FE30E948B1A7D
:1007C0009093070180930601892B61F50E94DC1A42
:1007D00064E670E080E40E941F1A90930701809302
:1007E0000601892BF9F464E670E08CE00E948B1A14
:1007F0009093070180930601892BA1F464E670E0D1
:1008000080E00E948B1A9093070180930601892B48
:1008100049F464E670E08FE30E948B1A909307011D
:10082000809306010E94DC1A8091060108951092BF
:10083000B7021092B8021092B9021092BA0284E084
:1008400080618093B7026091B7027091B802809185
:10085000B9029091BA020E94C70E0E94D50E089567
:100860000E94581208958230B8F46E30A8F44630D1
:1008700098F450E096E0699F400D511D1124FA0153
:1008800094E5899FE00DF11D1124EE0FFF1FE45543
:10089000FF4F85919491089581E090E008950E9422
:1008A0003304089581E008950E945204089581E080
:1008B00008950E94520408950E94590408950895CD
:1008C0000E945F040895A6E0B0E0E9E6F4E00C942D
:1008D000B72149835A839E833091A50189819A81EA
:1008E00031111AC03E81332399F0222389F00E94EE
:1008F0005D0A182F682F89819A810E94390A6981BF
:100900007A81812F0E9434112696E3E00C94D32142
:100910000E944B0A182FF3CF0E945D0A69817A81E9
:10092000F1CFFC01262F4081518162817381848146
:1009300095810E9463040895CF93DF93EC0161E0F9
:100940000E949104BE010E945404DF91CF9108954A
:10095000CF93DF93EC0160E00E949104BE010E94FE
:100960006004DF91CF91089508950E940E090E94BE
:10097000B4042FEF84E39CE0215080409040E1F7E5
:1009800000C0000008950E94B5040E94DC1908957B
:100990000E94B5040E940E1A08950F931F93CF93DF
:1009A000DF938C0161E00E949104EC01B8010E9488
:1009B0005C04811106C080E0DF91CF911F910F91FF
:1009C0000895B801CE010E9438178823A1F3B80119
:1009D000CE010E94CE15882371F3B801CE010E948A
:1009E000AA16882341F3F8018581882361F0C3307A
:1009F000FCE7DF07E9F058F4C115ECE7DE07A9F0E2
:100A0000C130DC47B9F0C8010E945704D5CFCB35BF
:100A10008CE7D807A9F0CC35ECE7DE0771F0CA35D2
:100A2000DC4789F70E94930EEECF0E94C304C3CF28
:100A30000E949B0E0E94C804BECF0E94890EE3CF85
:100A40000E94970EE0CF0E940F190E944A05089558
:100A50000E944E050E9413190895089581E008959B
:100A60000895CF93DF93D82F0E942E05C82F882397
:100A700019F08D2F0E9430058C2FDF91CF910895B2
:100A80000895CF93C82F0E942D058C2F0E94310509
:100A9000CF91089580E00E94410508950E9481173A
:100AA0000E9441050895CF930E948117C82F80911D
:100AB000A0018C1779F0C093A0010E949D1960934A
:100AC000A1017093A2018093A3019093A4018C2FA4
:100AD0000E944105CF910895ADE0B0E0E2E7F5E076
:100AE0000C94B821488759876A877B878C879D87B4
:100AF00091110E94C10D1F8286E0FE013896DE0131
:100B0000119601900D928A95E1F78D8181110DC0AA
:100B100029813A814B815C816D817E818F810E9428
:100B2000F40C2D96E2E00C94D421CE0101960E94A3
:100B30009C048111EDCFF5CFFC012481213021F4FB
:100B4000808191810E948F0A0895662329F00E9476
:100B5000CF130E94A21408950E942914FACFCF93B4
:100B6000C82F8823C9F08238C9F40E948E1781FDEE
:100B700013C089E30E94790D0E94FA0D2FEF87EED2
:100B800093E0215080409040E1F700C0000089E3ED
:100B90000E94810D0E94FA0DCF9108958338A1F42F
:100BA0000E948E1780FDF8CF83E50E94790D0E9488
:100BB000FA0D2FEF81EE94E0215080409040E1F754
:100BC00000C0000083E5E4CF8438A1F40E948E17B2
:100BD00082FDE2CF87E40E94790D0E94FA0D2FEF8B
:100BE00081EE94E0215080409040E1F700C0000089
:100BF00087E4CECF8CEF8C0F813A90F46C2F8091EC
:100C00000801909109010E941418882329F08C2F63
:100C10000E94810D0E94FA0D8C2F0E94790DBACF8F
:100C200080E28C0F883048F4C77081E001C0880FE3
:100C3000CA95EAF70E94A40DADCFEBE5EC0FE330C7
:100C400040F4F0E0E05BFE4F808190E00E94B61738
:100C5000A3CFE8E5EC0FEB3150F4F0E0EE0FFF1F0F
:100C6000E65EFE4F808191810E94DB1795CF83E382
:100C70008C0F833108F090CF61E08C2F0E94A50586
:100C80008BCF882309F456C0823879F40E948E17DE
:100C900081FF50C089E30E94790D0E94FA0D89E31B
:100CA0000E94810D0E94FA0D0895833859F40E9424
:100CB0008E1780FF3FC083E50E94790D0E94FA0DD8
:100CC00083E5EECF843859F40E948E1782FF32C03C
:100CD00087E40E94790D0E94FA0D87E4E1CF9CEF32
:100CE000980F913AE8F290E2980F983050F487709C
:100CF00091E001C0990F8A95EAF7892F0E94AA0D09
:100D0000D1CF9BE5980F933028F490E080E00E94CB
:100D1000B617089598E5980F9B3128F490E080E08D
:100D20000E94DB17089593E3980F933118F460E065
:100D30000E94A50508951F93CF93DF93182FEB0111
:100D40000E94AF05209739F4812F0E944106DF9160
:100D5000CF911F9108958FE99FE00197F1F700C0AF
:100D600000002197EFCF70E060E0893311F460E577
:100D700070E00E949B060895882321F00E94A40D34
:100D80000E94FA0D0895882321F00E94AA0D0E9466
:100D9000FA0D0895B0E0A0E0E0EDF6E00C94B1218A
:100DA0006C01D62FC72FFC011581068102950F70AB
:100DB0000E949A0DE82E8823E9F0E12E1123D1F04C
:100DC0008C2F807F803451F080E28D0F8830F8F0D6
:100DD000011104C08C2F807E8032C9F08091BC024A
:100DE00082FF15C082E00E945D0E0E949A0D91E084
:100DF000E82EE926BC2EB2949FE0B922FBE0FB1559
:100E0000B8F1EB2DF0E0EF58FC4D0C94A221E12C51
:100E1000F1CF0C2F0F70C07F11F00295007F1123CE
:100E200099F0002359F080E28D0F883010F0D11135
:100E300007C0802F0E94A40D0E94FA0D8D2F5AC06A
:100E4000802F0E94B40DF8CF8D2F0E944106002301
:100E500079F080E28D0F883010F0D11104C0802F1E
:100E60000E94AA0D03C0802F0E94BA0D0E94FA0DA5
:100E7000EB2DE850FF0B349720F40E9481170E945D
:100E80004105EE2089F00E94960D80FD0DC0F6010F
:100E900015820E94900D0E949709C6010E94D508F4
:100EA0000E94900D0E94A709CDB7DEB7E9E00C942F
:100EB000CD212C2F2F70F22EC07FC03219F0F2946A
:100EC00080EFF822DD2341F0D130D1F1112309F474
:100ED00043C00023F1F0B2CF8091BC0282FD15C067
:100EE000112359F0FF2029F08F2D0E94A40D0E949C
:100EF000FA0D80E00E94AF05BBCF80E00E94410662
:100F0000FF2009F4B5CF8F2DABCF112369F001116C
:100F100004C08F2D0E94BC06ABCF013009F0A8CFD2
:100F20008F2D0E94D80DA4CF0111A2CF8F2D0E942A
:100F3000C3068F2D0E94E40D8F2D0E94C80D98CFFF
:100F4000112321F0023008F093CFE3CF011190CFAD
:100F50008F2D0E94C3068CCF0023D1F3D93349F4DF
:100F60003FEF87EE93E0315080409040E1F700C0C2
:100F700000008D2F0E9441067BCF8C2F8695869591
:100F8000837069F0813009F073CF8D2F9C2F93709F
:100F9000111102C080E090E00E94DB1769CF8D2F15
:100FA0009C2F9370111102C080E090E00E94B61750
:100FB0005FCF612F8D2F0E94A5055ACF8C2F837094
:100FC000A1F5111155CF4D2F429546954770440F0D
:100FD000440F2D2F2F7030E0042E02C0220F331F3C
:100FE0000A94E2F790E080E0D4FF09C08FE090E03F
:100FF00002C0880F991F4A95E2F780959095C69593
:10100000C695C370822B932BC23049F058F4C1307F
:1010100019F00E9467092CCF0E945E0929CF0E9417
:10102000700926CF0E945B0923CF8695112311F00A
:101030008C2F8170882309F41BCF4D2F4295469544
:101040004770440F440F2D2F2F7030E0042E02C044
:10105000220F331F0A94E2F790E080E0D4FF09C02A
:101060008FE090E002C0880F991F4A95E2F78095C3
:101070009095C695C695C370822B932BC23049F0CC
:1010800058F4C13019F00E94D209F2CE0E94C90969
:10109000EFCE0E94DB09ECCE0E947F09E9CECF7033
:1010A000112329F08C2F0E9497098D2F33CF8D2F7C
:1010B0000E94C3068C2F0E94A709DACED23F39F1D5
:1010C00060F4D03FB9F0D13F81F0112309F445C05D
:1010D0000111B4CE8C2F8F711EC0D33FF9F0D43FD5
:1010E000A1F78091BC0282FD23C08C2F8F71112348
:1010F00011F311C0112339F00111BACE8C2F8F7169
:101100000E94B909B5CE023008F0B2CEF7CF8C2FCD
:101110008F711111D0CF0E949709AACE112329F007
:101120008C2F8F710E948B09A3CE0E948609A0CEBE
:10113000112349F0CF718C2F0E94970963E08C2F07
:101140000E943F0E95CE81E00E945D0E023008F4B1
:101150008FCE82E00E945D0E8BCE002359F0D933F2
:1011600009F007CFEFEFF7EE23E0E150F040204029
:10117000E1F7FDCE8C2F8F719ECF0F931F93CF93EE
:10118000DF93EC01688179818D810E949A0A8C013C
:101190000E94E4090E945A09B801CE010E94CA06C1
:1011A000DF91CF911F910F910895CF93DF93EC01C1
:1011B0008C81882399F0CE010E94CD04811111C049
:1011C0000E949A0D882351F08D81882339F08091F7
:1011D000BC0282FF03C082E00E945D0EDF91CF91CE
:1011E0000895CE010E94BD08CE010E94A804F6CF4A
:1011F00090E080E00E94B61790E080E00E94DB174C
:101200000E94C10D0E94FA0D0E94BE140E94A214F9
:1012100008950E94890D0E94F80808950E94B10D5A
:101220000E940909089592959F70963091F058F4A4
:10123000925F9F70923058F4803F19F030F4883EEE
:1012400030F481E008959A5FF4CF843FD1F380E0D9
:101250000895883EB0F3813FD1F7F3CFFC0124819C
:10126000222339F0808191810E948F0A0E94130904
:10127000089580E00895A6E0B0E0E1E4F9E00C9480
:10128000B8212696E2E00C94D421A7E0B0E0EBE48C
:10129000F9E00C94B8212796E2E00C94D42108954B
:1012A0000E944F0908950E9450099093D5018093A0
:1012B000D401089508950E94530908952091D401FE
:1012C0003091D501822B932B0E94530908952091D0
:1012D000D4013091D501822393230E9453090895AC
:1012E0002091D4013091D501822793270E94530980
:1012F00008950E944F0908950E94790908950E9457
:101300007C099093D3018093D201089590E080E00E
:101310000E947F09089521E030E0A90102C0440F36
:10132000551F8A95E2F7CA010E947F09089521E0BE
:1013300030E002C0220F331F8A95E2F78091D2017C
:101340009091D301822B932B0E947F09089521E075
:1013500030E002C0220F331F8A95E2F720953095C6
:101360008091D2019091D301822393230E947F091F
:10137000089521E030E002C0220F331F8A95E2F782
:101380008091D2019091D301822793270E947F09F7
:1013900008952091D2013091D301822B932B0E948A
:1013A0007F0908952091D2013091D30182239323A4
:1013B0000E947F0908952091D2013091D3018227A4
:1013C00093270E947F0908950895262F277091E0A2
:1013D00001C0990F2A95EAF723E0769567952A953B
:1013E000E1F7660F771F660F771FFA01E60FF71F09
:1013F00050E040E0682F70E08191DF0111979B0180
:10140000042E02C0369527950A94E2F721702195A3
:101410002827292328272C934F5F5F4F44305105FD
:1014200059F70895A82FA77023E0969587952A95D8
:10143000E1F7880F991F880F991FFB01E80FF91F2B
:1014400050E040E080E0219130E00A2E02C0369565
:1014500027950A94E2F721703327042E01C0220F4A
:101460000A94EAF7822B4F5F5F4F4430510559F7DA
:101470000895262F9E3070F4863060F4682F70E057
:1014800086E0989F600D711D112446EA51E0822F7D
:101490000E94E5090895292F9E3068F4863058F49B
:1014A00090E066EA71E036E0239F800D911D1124E3
:1014B0000E94120A089580E00895B0E0A0E0E3E6FB
:1014C000FAE00C94B1217C010091D2011091D3017A
:1014D0008091D4019091D501082B192BCFE0D0E059
:1014E000CC24C394D12CBC2EC6010C2E02C0880F74
:1014F000991F0A94E2F780239123892B49F42197BD
:1015000090F7B12C8B2DCDB7DEB7E9E00C94CD214F
:10151000B7018C2F0E944011019789F3F3CFCF932D
:10152000DF93EC010E945D0ABE010E944011DF9131
:10153000CF9108951F93CF93DF93EB019091A50175
:10154000992339F0CB010E948F0ADF91CF911F912F
:101550000895882369F0CB010E945D0A182F682F37
:10156000CE010E94390ABE01812F0E944011EDCFA9
:10157000CB010E944B0A182FF6CF1F93CF93DF9316
:10158000C091D60117E08091D7018C1304C0DF9180
:10159000CF911F910895D0E01C9FF0011D9FF00D89
:1015A0001124E852FE4F20813181428153816481B0
:1015B000758186810E9445092196C770E4CF2091EC
:1015C0001002309111024091120250911302609169
:1015D000140270911502809116020E944509089527
:1015E000CF93DF9380911602807F09F04DC08091E8
:1015F0001502882309F448C0E091D6015091D70123
:10160000C0911102D09110026091120270911302E8
:1016100047E05E17C9F18E2F90E0E49FF00111249E
:10162000E852FE4F2481222391F1489FF001499F07
:10163000F00D1124DF01A852BE4F11962C91119785
:101640002C1325C02C912D1322C015962C91159783
:1016500021111DC012962D913C91261B370B283C61
:101660003105A8F4809116028F7080618093160274
:10167000E252FE4F80818F708061808380E192E032
:101680000E94D5080E94BD0ADF91CF910895FC0108
:101690003196E770BECF482F2091D6019091D701A7
:1016A00057E0291302C080E0089530E0529FF00116
:1016B000539FF00D1124E852FE4F8181681306C03C
:1016C0008081481303C085818111EECF2F5F3F4F8A
:1016D0002770E7CFA4E1B0E0E0E7FBE00C94AE2197
:1016E0008C0186E0F801DE011F9601900D928A952B
:1016F000E1F7F8018481E58090E1A92E92E0B92E0E
:101700009091140291111FC08823D1F0EE20A9F00E
:10171000C8010E942E09F82E882379F087E0F8018D
:10172000D50101900D928A95E1F7C5010E949C05B3
:101730000E94F00A0E94DF0A5FC0C8010E94D5081B
:10174000FF24F39459C0C080D18082809380F090B0
:1017500015022091120230911302A401421B530B77
:10176000FF2009F4F9C0483C510508F0A7C08823C0
:1017700009F442C09091110280911602282F207F17
:1017800009F05CC09D1116C090911002C91212C0E0
:10179000E1104EC08F708061809316020E94DF0AB4
:1017A00080E192E00E94D50880911602F8018683BC
:1017B000F12C22C0E1103CC06D2D8C2D0E944B0BF2
:1017C0006D2D8C2D0E944B0BE82E8111F1CFCF8611
:1017D000D88A8F8598890E948F0A292F22952F7089
:1017E000243078F49F702230A8F09923B9F0F801E2
:1017F0009681907F99F4FE2C8F2D6496ECE00C94EA
:10180000CA212A5F2F70223068F0C8010E94D508D3
:10181000EF2CF1CF992311F0882369F3805E883093
:1018200050F3F3CF803F38F3815F833070F7E3CF1D
:1018300080911602816080931602BACF9D1113C069
:1018400090911002C9120FC0E1100DC08683C8012B
:101850000E94D50887E0F801A0E1B2E001900D9266
:101860008A95E1F767CFC8010E942E09882309F401
:1018700064CFEE2009F461CF80911602803288F0A7
:101880002091100230911102398728879B868A8621
:10189000909114029C871D868E87CE0108960E9427
:1018A000D50887E0F801A0E1B2E001900D928A9599
:1018B000E1F70E94F00A0E94DF0A42CF90911602DF
:1018C000292F207FA1F4682D9A8A898AA6017A8916
:1018D0009E2D0E943B0980E192E00E94D50887E09E
:1018E000F50111928A95E9F70E94DF0A61CF8823FA
:1018F00009F482CF809111028D1110C080911002E5
:10190000C8120CC0E1100AC09683C8010E94D50815
:1019100087E0F50111928A95E9F76ECFC8010E9420
:101920002E09882309F409CFEE2009F406CF80910F
:101930001602803208F4B5CF2091100230911102C6
:101940003A8329839C828B82909114029D831E820C
:101950008F83CE010196A3CF483C5105B8F588236B
:1019600009F4EECEFE2CEE2009F4E7CE80911102B0
:101970008D111EC080911002C8121AC080911602EB
:1019800080FD0DC0982F907F51F08683903F09F421
:101990005ECF982F907F905F8F70892B57CF87E015
:1019A000F801A0E1B2E001900D928A95E1F724CF11
:1019B000C8010E942E09811174CF809116028160A6
:1019C00080931602C8010E94D50816CF682D9A8A06
:1019D000898AA6017A899E2D0E943B0987E0F5013C
:1019E00011928A95E9F7A6CEAEE0B0E0EAEFFCE00E
:1019F0000C94B721288739874A875B876C877D8756
:101A00008E87CE0108960E946A0B8823B1F06C8500
:101A1000662341F0288539854A855B857D858E85DD
:101A20000E94450917E08091D6019091D701891352
:101A30003DC02E96E3E00C94D32187E0FE0138965A
:101A4000DE01119601900D928A95E1F78C8588232D
:101A500049F32091D70130E0C90101968770992799
:101A60004091D6014817190699F097E0929FD0014E
:101A7000939FB00D1124A852BE4FFE0131960190E4
:101A80000D929A95E1F78093D7010E94BD0ACACFC3
:101A90000E940E091092D7011092D60187E0E0E172
:101AA000F2E0DF011D928A95E9F7BCCF819FC0016A
:101AB000112488529E4F0E946A0B882309F4B9CFE3
:101AC000E091D6011E9FF0011124E852FE4F2081C3
:101AD0003181428153816481758186810E944509EB
:101AE0008091D60190E00196877099278093D60166
:101AF0009ACF682F80910801909109010E94941853
:101B00000895682F80910801909109010E94A21800
:101B1000089580910801909109010E94B0180895DC
:101B20008091370286958695869508958091370233
:101B30008770089590913702977081E009F480E0F2
:101B4000089580915B02089590915B02892B8093A8
:101B50005B020895809590915B02982390935B02BD
:101B6000089510925B02089590915A02892B8093F8
:101B70005A020895809590915A02982390935A02A0
:101B8000089510925A02089508950E94C40D089570
:101B900090913802292F282331F080958923809352
:101BA00038020E94C50D089508950E94D40D08952D
:101BB00090913902292F2823281729F0982B9093E8
:101BC00039020E94D50D089590913902292F2823BA
:101BD00031F080958923809339020E94D50D0895B4
:101BE00080913902882329F01092390280E00E9406
:101BF000D50D0895CF93DF93E0910801F09109018D
:101C000080915B028083E0910801F091090180815D
:101C100090915A02892B808390913902992381F007
:101C2000E0910801F09109018081892B80838091E6
:101C30000801909109010E94001881110E94F00D85
:101C4000C0910801D091090140E250E067E172E0E3
:101C5000CE010E940A23892B59F080E2FE01A7E100
:101C6000B2E001900D928A95E1F7CE010E949117A2
:101C7000DF91CF91089508950E943B0E08959091B1
:101C8000BC0292FF11C098E0899F90011124622B41
:101C9000609337020E949709809137028695869556
:101CA00086950E943C0E08950E949709089510920F
:101CB000370280E00E943C0E089590913702809593
:101CC000892380933702282F277069F4891759F0E8
:101CD0009091BC0292FF07C08695869586950E94DA
:101CE000A7090E94570E08959091BC0292FB2227EB
:101CF00020F9281769F080FB92F99093BC0280913B
:101D0000BB029091BC020E94BC0E82E00E945D0E5C
:101D100008958091BC0282FB882780F991E0892791
:101D20000E94740E089581E00E94740E089580E070
:101D30000E94740E08956FEF7FEF90E080E00E94A4
:101D40005923089590E080E00E94252321E0863EFB
:101D50009E4F09F020E0822F089582E090E00E94DB
:101D60001723089583E090E00E941723089584E0EC
:101D700090E00E9425230895BC0184E090E00E9439
:101D8000592308958FE090E00E941F230895AB012E
:101D9000BC018FE090E00E944D230895AB01BC018F
:101DA00083E190E00E944D23089560E070E0CB0154
:101DB0000E94CE0E0895A8E0B0E0E1EEFEE00C94A3
:101DC000B82166EE7EEF90E080E00E94592360E04B
:101DD00082E090E00E943B2360E083E090E00E947C
:101DE0003B231092D5011092D40160E074E184E0AD
:101DF00090E00E94592360E086E090E00E943B233F
:101E00006FEF87E090E00E943B2340E050E0BA0192
:101E100088E090E00E944D2360E084E290E00E9420
:101E20003B2360E087E190E00E943B2360E08CE090
:101E300090E00E943B2360E08DE090E00E943B2315
:101E400019821A821B821C821D821E821F821886A2
:101E500048E050E068E170E0CE0101960E942B233B
:101E600040E050E0BA0180E290E00E944D230E94E1
:101E700017042896E2E00C94D4210E94DB0E08950A
:101E8000682F8EE090E00E943B230895A6E0B0E02A
:101E9000ECE4FFE00C94B6210E9491198C01809132
:101EA0005C0290915D028017910781F019821A827D
:101EB0000E949119682F49815A81792F80E090E022
:101EC0000E946C0510935D0200935C022696E4E08C
:101ED0000C94D2210E949D1960937002709371023C
:101EE000809372029093730260936C0270936D0200
:101EF00080936E0290936F020895089508950E9452
:101F00007D0F089508950E94820F089586E392E15F
:101F10000E9445130E947E0F0E947F0F089581E06A
:101F200008950E948F0F08950E948F0F08950895BD
:101F300008950E94970F0E94980F08950E943912E9
:101F40000E94400508950E9488190E9460120E9414
:101F50009E0F0E94830F0895A6E0B0E0E2EBFFE041
:101F60000C94AF210E94910F81110AC00E94460F6C
:101F70000E94E0140E9453052696EBE00C94CB21BE
:101F80000E9472128EE5A82E82E0B82E750110E034
:101F9000F70101917F01812F0E9459121F5F1E30AE
:101FA00009F441C00817A1F38091740281FD0E94D9
:101FB0005F120E94940FC82E10E099249394812FF1
:101FC0000E945912082FF50181915F01081729F12C
:101FD000F12CEE24E394D02ED8268D2D8E21A9F05D
:101FE000CC2099F0F9821A830E9491199C838B83EB
:101FF0009D8291E0802F8E2109F490E049815A81E1
:102000006B817C818D810E946C05F394EE0CF6E06F
:10201000FF12E3CFF501319700831F5F1E3079F681
:102020000E946A0FA5CF0813BFCFA0CF1F93CF93F5
:10203000DF930E944511EC01C11580E5D807F0F54A
:10204000C11580E4D80708F09CC0C03ED10520F53A
:10205000CD3CD10508F082C0C83AD10578F4C53A24
:10206000D10508F073C0C130D10519F1209709F1ED
:10207000C430D105F0F4D0E0C0E01BC0C33CD105B2
:10208000D0F7C85AD0E0CC0FDD1FCD5ADE4F0990F3
:10209000D881C02DD4640DC0C11580E2D80708F0E6
:1020A000D1C0C11581E0D80708F05AC0C83ED1059B
:1020B00010F7CE01DF91CF911F910895C03682E5D0
:1020C000D80718F5C03482E5D80708F06BC0C032D5
:1020D00082E5D80708F05FC0C11582E5D80708F48B
:1020E00097C02C2F2695269580E2289F90011124D9
:1020F0008C2F8370C1E0D0E002C0CC0FDD1F8A9529
:10210000E2F7C22BD32BDD68D4CFC03A82E5D807E3
:1021100060F4C03882E5D80708F459C0CF71D0E028
:10212000DC2FCC27C46FD06AC4CFC03C82E5D8076F
:1021300008F462C0C03E82E5D80708F09CCFDC2FCF
:10214000CC27CC27DF71C06FD06AB3CFC55AD0E09F
:10215000C757DE4FC881D0E0D064ABCFD065A9CFE0
:102160008D2F0E94E711182FCE0199270E9445114B
:10217000C12FD0E0DC2FCC27CC27DF71C82BD92B87
:1021800098CFCE0199270E944511CC27DF70C82B2C
:10219000D92BD06A8ECFCF71D0E0DC2FCC27C16F86
:1021A000D06A87CF2C2F26952695277080E2289F0E
:1021B000900111248C2F8370C1E0D0E002C0CC0FBD
:1021C000DD1F8A95E2F7C22BD32BDC6872CF2C2F50
:1021D00026952695277080E2289F900111248C2F48
:1021E0008370C1E0D0E002C0CC0FDD1F8A95E2F71A
:1021F000C22BD32BDA685DCF8C2F8F710E94E71131
:10220000C82FD0E0DC2FCC27CC27DF71D06251CF94
:102210008C2F8F710E94E71155E0D695C7955A957E
:10222000E1F7CF70D0E0DC2FCC27282F30E084FFFF
:1022300005C044E0220F331F4A95E1F7C22BD32B90
:10224000D06937CF8D2F8F710E94E711182FCE01E3
:1022500099270E944511C12FD0E0DC2FCC27CC2735
:10226000DF71C82BD92BD2CF462F7E3030F46630A9
:1022700020F4672F0E944F04089590E080E00895B5
:102280000E9434110E941610089582389105B9F108
:10229000B0F48133910509F47DC048F48932910589
:1022A00009F46DC08A32910509F47BC00895853325
:1022B000910509F45FC08933910509F10895833EC2
:1022C0009105D9F138F4803E910529F1823E9105BE
:1022D00079F10895863E9105D9F1873E910509F47B
:1022E0003EC0843E910541F52091BC0221FF24C0EF
:1022F0008091BB0284FD19C087EE90E00895209183
:10230000BB02237009F05AC02091BC0223FF14C005
:1023100089E290E008952091BB0220FD38C0309101
:10232000BC0230FF09C024FF43C090E080E0089564
:102330002091BB0222FDF7CF08952091BB0222FD20
:102340003AC03091BC0230FD39C024FFF5CFEDCF4B
:102350002091BB0223FFF0CF24FDE7CFCDCF20910A
:10236000BB0223FD2EC03091BC0231FFEECF84EEC4
:1023700090E008952091BB0225FFDECFC9CF2091C8
:10238000BB0225FD21C02091BC0223FFD5CF89E3EC
:1023900090E0D2CF2091BB0226FFCECF8AE290E020
:1023A00008952091BB0226FFC7CF81E390E00895F6
:1023B00083EE90E0089582EE90E0089580EE90E044
:1023C000089586EE90E0089585E390E00895909159
:1023D000BB0292FF10C041E0282F2471243009F085
:1023E00040E031E0282F2871283009F030E0431711
:1023F00011F02CE0822793FF10C041E0282F2471B8
:10240000243109F040E031E0282F2871283109F00B
:1024100030E0431711F02CE082273091BC0230FFEE
:1024200010C051E0282F2171213009F050E041E027
:10243000282F2871283009F040E0541711F029E0C6
:10244000822731FF10C041E0282F2171213109F08E
:1024500040E031E0282F2871283109F030E043179F
:1024600011F029E0822794FD877E089580E0089589
:1024700008950E94A20E811102C00E943D0F0E9489
:10248000AD0E809374020E94B70E9093BC028093AD
:10249000BB020E9438120E94B20E90E00E945B09BB
:1024A0008091D2019091D3010E947C0908950895F2
:1024B0000895E82FF0E0E553FD4F808108950895D9
:1024C0000E949602EDEBF2E0ABECB2E011921D92AD
:1024D00082E0EB3CF807D1F78EE00E9485120E9463
:1024E00074030895CF938DEB92E00E94A202282FEF
:1024F0004EE06BEC72E08DEB92E00E949812C82FD8
:102500000E9430048C2FCF910895CF93C82F90E074
:102510000E94DF218093790290937A02282FFC0198
:102520008E2F821B8C1710F0CF9108951192F8CF47
:10253000B0E0A0E0EEE9F2E10C94B321082FF92E0F
:10254000E62ED72E142FC22F10927502D09176024C
:10255000DD2309F452C00E94911920917702309135
:102560007802AC01421B530B9A019093780280933E
:1025700077024F3F510509F0C8F4452B99F01092AE
:10258000760210927B0240917902E42FF0917A0258
:1025900090E030E08E2F841B811758F03093760244
:1025A00090937B02C11137C0CD2F29C02FEF30E0AF
:1025B000E6CF8081882321F0281720F010829D2FFC
:1025C0003196E8CF821B80833D2FFACF8C913881E2
:1025D000381779F0308131110CC0508388832C91E9
:1025E0008227292F30E0282B91E0232B09F490E05B
:1025F00021E03196219611961EC0211106C08091CE
:102600007B02882301F1C11106C00E9491199093A9
:1026100078028093770210927B0240917902909128
:10262000750220917602CE2DDD2DA02FBF2DE42F37
:10263000F0917A025EE18E2F841B811738F290931D
:1026400075022093760280917502CDB7DEB7E7E080
:102650000C94CF210E94511C0E94A30F0E945E1C6B
:1026600008950E94631C0E94AC0F0E947D1C089577
:102670000E942A190E94371C0E94860F0E942A136A
:102680000E9431130E94990FFBCF90939D0180937C
:102690009C010895282F35EB2303C001112497FFD7
:1026A00004C080589109892F089580589F4FFBCF0F
:1026B0008091830280FF0DC060910F0170E0660F72
:1026C000771F6038710570F56115710569F1862F06
:1026D000089581FF07C060910F0184E0689FB001F9
:1026E0001124EFCF60910F0182FD0AC08091820218
:1026F0008823A9F020910E0160910F01821710F03C
:1027000088E0ECCF869FC001112433E0880F991F29
:102710003A95E1F7622F70E00E948E21D2CF68E0F7
:1027200070E0D5CF8FE7089581E00895809183020E
:1027300080FF0CC060910B0170E0759567957595F1
:1027400067956115710549F1862F089581FF06C0CF
:1027500060910B0170E075956795F3CF60910B0167
:1027600082FD0BC0909181029923A1F060910A0132
:1027700080910B01961738F0682F70E06038710572
:1027800000F38FE70895899FC001112470E00E9433
:102790008E21F4CF61E070E0D7CF81E008958D3CC9
:1027A00031F40E94581381958093860208958E3CDF
:1027B00019F40E945813F8CF8F3C31F40E9458133B
:1027C0008195809385020895803D19F40E945813E5
:1027D000F8CF893D29F40E949613809387020895CB
:1027E0008A3D21F40E9496138195F7CF8B3D31F4F9
:1027F0000E94961381958093880208958C3D19F468
:102800000E949613F8CF9FE2980F983070F4815D84
:10281000990B21E030E001C0220F8A95EAF7809100
:102820008402822B8093840208958D3D31F480913F
:10283000830281608093830208958E3D21F480910C
:1028400083028260F7CF8F3DB9F780918302846065
:10285000F1CF409185028D3C59F48091860287FF2B
:102860000DC01092860241110BC01092820208C066
:102870008E3C81F48091860218169CF3442381F0EB
:102880008091870290918802892B09F05AC010929A
:10289000810208958F3C49F447FFF0CF10928502E2
:1028A000809186028111ECCFE0CF803D19F414169F
:1028B000ACF3E4CF90918702893D29F41916F4F620
:1028C00010928702DBCF8A3D19F497FFD7CFF8CF5C
:1028D000909188028B3D29F497FFD0CF1092880207
:1028E000CDCF8C3D19F41916CCF3C8CF9FE2980FC9
:1028F000983090F4815D990B21E030E0B90102C07D
:10290000660F771F8A95E2F7CB018095909184023C
:10291000892380938402B2CF8D3D31F4809183026C
:102920008E7F80938302AACF8E3D21F48091830213
:102930008D7FF7CF8F3D09F0A1CF809183028B7FF0
:10294000F0CF08950E9491199C0190918502809189
:102950008602982B21F03093800220937F02909181
:10296000870280918802982B21F030937E02209379
:102970007D0284E892E00E94AB17089585E0E4E8C8
:10298000F2E0DF011D928A95E9F71092820210921F
:102990008102109283020895FC01818181110EC091
:1029A000828181110BC08381811108C091E08481F3
:1029B000811101C090E0892F8170089581E0FCCFE2
:1029C000A5E0B0E0E6EEF4E10C94B72185E0E4E8A0
:1029D000F2E0DE01119601900D928A95E1F71092D6
:1029E00085021092860210928702109288028A81D4
:1029F0009B81892B89F080917F02909180020E94B7
:102A0000A919AC01909182029923C9F1809110011A
:102A10008417150608F440C08C819D81892B91F0A4
:102A200080917D0290917E020E94A919AC01909143
:102A30008102992309F46AC080910C01841715065C
:102A400008F472C0BE016F5F7F4F84E892E00E947D
:102A5000C218811105C084E892E00E94CC14811153
:102A60000E94A21485E0FE013196A4E8B2E0019034
:102A70000D928A95E1F72596E3E00C94D3212091FD
:102A80007C028AE0289F900111242417350720F644
:102A90009F5F9093820202C09F3FD1F71A8111235A
:102AA00059F00E9458139FEF11160CF491E0899F82
:102AB000802D1124809385021B81112359F00E94DF
:102AC00058139FEF11160CF491E0899F802D11246B
:102AD0008093860280918502882309F49DCF10910E
:102AE0008602112309F498CF0E944A13882351F0DB
:102AF00080938502812F0E944A13882329F08093B6
:102B000086028ACF81E0F4CF81E0F9CF20910D01D8
:102B10008AE0289F900111242417350708F092CFEE
:102B20009F5F9093810202C09F3FD1F71C811123C8
:102B300059F00E9496139FEF11160CF491E0899FB3
:102B4000802D1124809387021D81112359F00E944A
:102B500096139FEF11160CF491E0899F802D11249C
:102B60008093880280918702882309F46BCF1091AB
:102B70008802112309F466CF0E944A13882351F07A
:102B800080938702812F0E944A13882329F0809323
:102B9000880258CF81E0F4CF81E0F9CFCF93DF9363
:102BA000EC01FB018581882309F4D2C09E013057D6
:102BB0002332310508F0B2C00E94B70E9093BC02D8
:102BC0008093BB02FE01E150F047E232F10520F4B0
:102BD000E358FC4D0C94A2218091BB02816080934C
:102BE000BB0293C08091BC0288608093BC028DC000
:102BF0008091BB028260F3CF8091BB028460EFCFF3
:102C00008091BB028860EBCF8091BC028160EDCFE8
:102C10008091BC028260E9CF8091BB028061DFCFEE
:102C20008091BB028062DBCF8091BB028064D7CFF2
:102C30000E940E098091BB028068D1CF8091BB02B7
:102C40008C60CDCF8091BC028360CFCF8091BB02DE
:102C50008E7FC5CF8091BC02877FC7CF8091BB029A
:102C60008D7FBDCF8091BB028B7FB9CF8091BB029E
:102C7000877FB5CF8091BC028E7FB7CF8091BC0299
:102C80008D7FB3CF8091BB028F7EA9CF8091BB0295
:102C90008F7DA5CF8091BB028F7BA1CF0E940E09B3
:102CA0008091BB028F779BCF8091BB02837F97CFB0
:102CB0008091BC028C7F99CF8091BB0282FB9927C7
:102CC00090F921E0922790FB82F990FB83F987CF5E
:102CD0008091BC02982F909591708E7F892B90FBEC
:102CE00081F983CF9091BB02892F8F7B96FF8064FF
:102CF00076CF0E940E099091BB02892F97FB87F92E
:102D000080586DCF81E00E94400F8091BB0290916E
:102D1000BC020E94BC0E0E940E0980E0DF91CF91A0
:102D2000089580E0F0CF9091BB02892F8F7E94FFB1
:102D3000806155CF9091BB02892F8E7F90FF81607B
:102D40004ECF9091BC02892F877F93FF88604DCF33
:102D500081E0E4CFCF93DF93EB0186319C4711F5FF
:102D60000E94A10D9D81992399F08A7A91E009F43E
:102D700090E090938902811109C089E20E94790D47
:102D80000E94FA0D80E0DF91CF91089585E3F6CFA0
:102D900080918902811104C089E20E94810DF0CFE7
:102DA00085E3FBCF81E0EFCF0F931F93CF93DF93AA
:102DB000C42FD22FFC0185818823C9F040938C0257
:102DC0000E94911990938B0280938A0280E28C0F6B
:102DD000883040F4C77081E001C0880FCA95EAF7D7
:102DE0000E94BC06DF91CF911F910F910895109121
:102DF0008C02141332C080918A0290918B020E943F
:102E0000A919883C910548F5C0E2CD0F1D17B9F00E
:102E100080E2810F883040F4177081E001C0880F94
:102E20001A95EAF70E94C306C83048F481E09D2F46
:102E3000977001C0880F9A95EAF70E94BC06802F10
:102E40000E94B306C83070F6D77081E001C0880FC9
:102E5000DA95EAF70E94C306C5CF80E28C0F88306E
:102E600008F6C77081E001C0880FCA95EAF7F2CF73
:102E70000F93DB0188519C4787309105A0F5FC0139
:102E8000E156FC4D0C94A22106E221EE41EE6AE1EE
:102E90007CE7CD010E94D41680E00F91089507E2EF
:102EA00025EE45EE6BE17CE7F4CF06E221EE40EE45
:102EB00068E17CE7EECF07E225EE44EE69E17CE7CE
:102EC000E8CF06E221EE42EE6CE17CE7E2CF07E2DA
:102ED00025EE46EE6DE17CE7DCCF08E221E045EE31
:102EE0006EE17CE7D6CF15968C91882319F010926D
:102EF0008C02D3CF81E0D1CF909392028093910244
:102F00000895E0919102F0919202309729F001909A
:102F1000F081E02D0995089580E008950E948117C1
:102F20000895E0919102F0919202309799F02091EA
:102F30001901222359F02091BB0227FF07C0DC01B1
:102F40002C9111962C93119726E02C930280F381FB
:102F5000E02D09950895E0919102F0919202309749
:102F600021F00480F581E02D09950895A3E0B0E0FB
:102F7000ECEBF7E10C94B82120918F023091900294
:102F800028173907A1F09093900280938F02E09167
:102F90009102F0919202309751F023E029839B83B4
:102FA0008A830680F781E02DCE010196099523964C
:102FB000E2E00C94D421A3E0B0E0E1EEF7E10C9460
:102FC000B82120918D0230918E0228173907A1F087
:102FD00090938E0280938D02E0919102F091920283
:102FE000309751F024E029839B838A830680F78100
:102FF000E02DCE01019609952396E2E00C94D421B0
:10300000FC01329680911901882321F08091BB0246
:103010009EE187FF96E080E0915008F408952191A9
:103020002223D1F38F5FF8CF662301F1209119019C
:103030002223F1F02091BB0227FF1AC0462F4695AC
:10304000469546954E3190F4677021E030E002C01D
:10305000220F331F6A95E2F7840F911DFC018281D4
:1030600090E02823392381E0232B69F480E0089540
:10307000FC01329608962191261721F0E817F907EE
:10308000D1F7F4CF81E008959C01FC0132969FEFC7
:1030900080E04191461751F09F3F19F4411101C062
:1030A000982F8F5F8630A9F79F3F09F40895290F65
:1030B000311D97FD3A95F90162830895FC0132961E
:1030C00008962191261303C0DF0111971C92E8177F
:1030D000F907B9F70895E62FE695E695E695EE31FE
:1030E00068F4E80FF92FF11D677021E030E001C0AE
:1030F000220F6A95EAF78281822B82830895E62F58
:10310000E695E695E695EE3170F4E80FF92FF11D9E
:10311000677021E030E001C0220F6A95EAF7209540
:10312000828128232283089520911901222339F0D6
:103130002091BB0227FF03C00E946B1808950E94D4
:103140004418089520911901222339F02091BB02DF
:1031500027FF03C00E947F1808950E945E180895FB
:10316000FC01329680911901882351F08091BB02B5
:1031700087FF06C08EE1DF011D928A95E9F7089569
:1031800086E0F9CFDC01FB019C918081981322C07D
:1031900011968C911197882319F0918189131AC087
:1031A00012968C911297882319F09281891312C07C
:1031B00014968C911497882319F0948189130AC06E
:1031C00013969C91992321F081E02381291303C058
:1031D00080E001C081E08170089508950E94ED189B
:1031E0000895811106C081E0809393020E94EE1839
:1031F000089582E0F9CF83E0809393020E94EE1855
:1032000008950E94F118089581E0809393020E942E
:10321000EE1808950E9404190895089508950E94D3
:103220000E19089508950E940D190895CF930E94D4
:10323000F4020E9472120E941219C0E08C2F0E94A8
:103240005912811105C0CF5FCE30C1F7CF910895DB
:1032500081E0FCCF85B7806885BF85B7806885BF72
:1032600008951F921FB61F9211248F939F93AF93BF
:10327000BF9380919402811113C08091D9029091E3
:10328000DA02A091DB02B091DC024196A11DB11DD2
:103290008093D9029093DA02A093DB02B093DC0210
:1032A000BF91AF919F918F911F901FBE1F90189556
:1032B0008091E102843031F10E9423051092940242
:1032C00088E190E020E40FB6F894A8958093600020
:1032D0000FBE2093600083B7817F846083BF83B774
:1032E000816083BF7894889583B78E7F83BF0FB644
:1032F000F894A89580916000886180936000109296
:1033000060000FBE08950E940E090E9428050895CE
:1033100082E084BD93E095BD9AEF97BD80936E00E7
:1033200008952FB7F8948091D9029091DA02A09174
:10333000DB02B091DC022FBF08952FB7F8946091A3
:10334000D9027091DA028091DB029091DC022FBFEA
:1033500008959C014FB7F8948091D9029091DA02B8
:10336000A091DB02B091DC024FBF821B930B08954A
:1033700078941F921FB61F9211248F939F93AF933F
:10338000BF938091D9029091DA02A091DB02B091B3
:10339000DC020196A11DB11D8093D9029093DA023F
:1033A000A093DB02B093DC02BF91AF919F918F910C
:1033B0001F901FBE1F901895F89481E08093E00045
:1033C00080E28093D800E9ECF0E010828FE19EE487
:1033D0000197F1F700C000001DBA109268001CBCF4
:1033E00010BE1FBA10927A0010926E0010926F00F9
:1033F00010927100109272001082ECEBF0E01082DB
:1034000014B817B81AB81DB810BA108215B818B881
:103410001BB81EB811BA0C94003F089588E19AE0D9
:103420000FB6F894A895809360000FBE909360004B
:10343000FFCF1092B9008CE08093B8000895B0E0FF
:10344000A0E0E5E2FAE10C94AF21B82EEB010E9476
:1034500091196C01EE24E394F12CC431D10560F094
:1034600025E0E22EF12CCF3FDC0731F0CE0164E104
:1034700070E00E947A217B0184EAA82E94E8992EBC
:103480001092BC00A092BC000E9491198C01809106
:10349000BC0087FF0DC08091B900887F8830F9F0AB
:1034A0008091B900887F8031D1F00FEF1FEF08C005
:1034B000C8010E94A919E816F90648F70EEF1FEF98
:1034C000CF3FDC07E9F2C6010E94A919C817D90746
:1034D000B8F6C801CDB7DEB7EBE00C94CB21B092C3
:1034E000BB009092BC000E9491198C018091BC009D
:1034F00087FF0AC08091B900887F883111F080343D
:10350000A1F610E000E0E5CFC8010E94A919E81675
:10351000F90660F7D3CF0F931F93CF93DF93EB019F
:103520008093BB0084E88093BC000E9491198C01B9
:103530008091BC0087FF11C02091B900287F81E0F5
:1035400090E0283211F490E080E091958195910906
:10355000DF91CF911F910F910895CF3FDC0741F389
:10356000C8010E94A919C817D90710F78EEF9FEF5D
:10357000EFCF0F931F93CF93DF93EC0184E88093F9
:10358000BC000E9491198C018091BC0087FF08C08B
:103590008091BB0090E0DF91CF911F910F91089532
:1035A000CF3FDC0789F3C8010E94A919C817D907C2
:1035B00058F78EEF9FEFEFCF84E98093BC0008951A
:1035C0008091B50208959B01BA019091E102943077
:1035D000E9F48F708093E9009FEF8091E8009150AB
:1035E00085FD06C085ED8A95F1F700009111F5CFB4
:1035F0008091E80085FF0AC050E040E0C9010E94C8
:10360000F31C8091E8008E778093E800089543E0F2
:1036100050E0BC0183E00E94E31A089545E050E0C9
:10362000BC0182E00E94E31A0895CF93DF93EC017E
:1036300080911901811111C048E050E0BE0181E084
:103640000E94E31A80E2FE01A5E9B2E001900D922A
:103650008A95E1F7DF91CF9108958091BB0287FFB2
:1036600005C040E283E050E0BE01EACF48E081E0DF
:10367000FACF8091E002811109C00E94831E0E944E
:10368000E01E8091E20084608093E2000895109231
:10369000E00208950E94041908956091DD0281E01E
:1036A000611101C080E00E94FB1808959091E10231
:1036B00081E0943009F080E06091DD020E94011900
:1036C000089542E061EC81E00E94FF1D42E061EC60
:1036D00082E00E94FF1D42E261EC83E00E94FF1D38
:1036E0009091E10281E0943009F080E06091DD0288
:1036F0000E94F11808958091E302833009F463C0B9
:1037000030F48130E1F1823009F4A0C008958A30AC
:1037100009F48CC08B3009F471C0893009F052C0B3
:103720008091E202813209F04DC08091E6029091D1
:10373000E702009719F0029709F044C08091E80071
:10374000877F8093E8008091E80082FF37C09091E6
:10375000F3008091F200029731F48091F100813002
:1037600011F0863021F48091F1008093B5028091B0
:10377000E8008B778093E8000E94331E23C080917D
:10378000E202813AF9F48091E800877F8093E800B3
:103790008091E6029091E702892B61F460E285E96D
:1037A00092E070E00E94421D8091E8008B77809348
:1037B000E800089560E090E080E0F3CF8091E102BE
:1037C0008111C1CF08958091E202813AD9F78091A9
:1037D000E6029091E702892BA9F78091E800877FA4
:1037E0008093E8008091E80080FFFCCF8091190170
:1037F0008093F1008091E8008E77BCCF8091E20247
:10380000813201F78091E6029091E702892BD1F68F
:103810008091E800877F8093E8000E94331E8091AA
:10382000E402809319010E940E0908958091E2023A
:10383000813241F68091E800877F8093E8000E9402
:10384000331E8091E5028093B60208958091E202D2
:10385000813A09F0B7CF8091E800877F8093E80034
:103860008091E80080FFFCCF8091B602C1CF84B781
:10387000877F84BF0FB6F894A89580916000886117
:1038800080936000109260000FBE80E890E00FB659
:10389000F89480936100909361000FBE0E940A1912
:1038A00008950E94831E0E94E01EE2EEF0E08081F7
:1038B0008460808378940E945F21089581E191E083
:1038C0000E947C1708958091E102853031F4809147
:1038D000E102853019F00E94831908950E94581959
:1038E0008091DF02882399F30E941619882379F3C7
:1038F0000E94DD1C0E940E09EACF08959A014091B2
:10390000E8025091E9020E94861C0895492F55272C
:103910004330510521F168F44130510509F443C0A9
:103920004230510509F444C090E080E050E040E0AE
:1039300026C04132510551F142325105A9F7633099
:10394000710590F7FB01EE0FFF1FE157FE4F40811D
:10395000518164577E4FFB01808190E010C0992710
:103960008130910581F0009729F00297E9F6ECEF9C
:10397000F1E002C0EEE3F2E0849190E0AF01F901E2
:10398000518340830895E4E1F2E0F6CF633071059E
:1039900058F6660F771FFB01EB56FE4F40815181B1
:1039A00089E090E0ECCF82E190E046E952E0E7CF99
:1039B00084E590E042E452E0E2CF80E189BD82E11B
:1039C00089BD09B400FEFDCF8091D8008F7D809322
:1039D000D8008091E00082608093E0008091E00058
:1039E00081FDFCCF0895AF92BF92CF92DF92FF92FC
:1039F0000F931F93CF93DF936C01EB018A010E9419
:103A0000521EF82E811123C00115110539F0F8015D
:103A100080819181C81BD90BC80ED91EB12CA12C55
:103A20002097A9F08091E80085FD22C08091E800F0
:103A30008E778093E80001151105A1F0F8018081CF
:103A40009181A80EB91EB182A08285E0F82E8F2D3B
:103A5000DF91CF911F910F91FF90DF90CF90BF909A
:103A6000AF9008950E94521E8823D1F2F82EEFCF16
:103A7000F60181916F018093F1002197FFEFAF1A5A
:103A8000BF0ACECFFC018091E8029091E90286172F
:103A90009707A0F06115710529F49091E8009E77D1
:103AA0009093E80090E06115710551F4911108C000
:103AB0008091E80082FF34C080E00895BC01F2CF1D
:103AC0008091E1028823C1F18530C1F18091E80045
:103AD00083FD30C08091E80082FDEACF8091E8004C
:103AE00080FFE1CF8091F3002091F200382F611523
:103AF000710519F02830310558F091E02830310572
:103B000009F090E02091E8002E772093E800CBCFD9
:103B100081918093F100615071092F5F3F4FE7CF92
:103B20008091E102882341F0853041F08091E800E6
:103B300083FFBECF81E0089582E0089583E0089579
:103B4000FC018091E8029091E90286179707A0F0A6
:103B50006115710529F48091E8008E778093E80063
:103B600090E06115710551F4911108C08091E80051
:103B700082FF35C080E00895BC01F2CF8091E10260
:103B80008823C9F18530C9F18091E80083FD31C0F7
:103B90008091E80082FDEACF8091E80080FFE1CFCC
:103BA0008091F3002091F200382F6115710519F012
:103BB0002830310558F091E02830310509F090E0C7
:103BC0008091E8008E778093E800CBCF849180933A
:103BD000F1003196615071092F5F3F4FE6CF809120
:103BE000E102882341F0853041F08091E80083FFB5
:103BF000BDCF81E0089582E0089583E00895982F75
:103C0000973028F08F708093E90081E008959093B9
:103C1000E900242F762F50E0981731F07091EC00D6
:103C20002091ED005091F00021FD02C09F5FE8CF90
:103C30003091EB003E7F3093EB003091ED003D7F03
:103C40003093ED003091EB0031603093EB007093D6
:103C5000EC002093ED005093F0002091EE0027FD42
:103C6000E5CF80E008958091E20287FF13C0809144
:103C7000E80082FF06C08091E8008B778093E8001F
:103C800004C08091E1028111F2CF08958091E10298
:103C90008823D9F38091E80080FFF8CF8091E80075
:103CA0008E77ECCF2091E4003091E50095E6A901F4
:103CB0002091EC00822F817020FF06C08091E800E7
:103CC00080FF06C080E008952091E80022FD1AC020
:103CD0008091E102882389F0853089F08091EB00A2
:103CE00085FD0FC02091E4003091E5004217530795
:103CF000F9F29150E1F684E0089582E0089583E0BE
:103D0000089581E008950E94F21E0E94FA1EE0EEDE
:103D1000F0E0808181608083E8EDF0E080818F7742
:103D2000808319BCA7EDB0E08C918E7F8C9380814D
:103D30008F7E80831092E00208950F931F93CF939C
:103D4000DF930E94F21E0E94FA1EC8EDD0E0888127
:103D50008F77888388818068888388818F7D888336
:103D600019BC1092E1021092DD021092DF02109253
:103D7000DE0200EE10E0F80180818B7F8083888175
:103D80008160888342E060E080E00E94FF1DE1EEF8
:103D9000F0E080818E7F8083E2EEF0E080818160C0
:103DA0008083808188608083F80180818E7F80831A
:103DB000888180618883DF91CF911F910F91089551
:103DC000E8EDF0E080818F7E8083E7EDF0E0808198
:103DD0008160808384E082BF81E08093E0020E9462
:103DE0009D1E0895E8EDF0E080818E7F8083109223
:103DF000E20008951092DA001092E10008951F92F7
:103E00000F920FB60F9211242F933F934F935F930E
:103E10006F937F938F939F93AF93BF93EF93FF9392
:103E20008091E10082FF0BC08091E20082FF07C019
:103E30008091E1008B7F8093E1000E945E21809160
:103E4000DA0080FF19C08091D80080FF15C08091F2
:103E5000DA008E7F8093DA008091D90080FF96C0CF
:103E600080E189BD82E189BD09B400FEFDCF81E01A
:103E70008093E1020E94391B8091E10080FF19C00C
:103E80008091E20080FF15C08091E2008E7F8093D8
:103E9000E2008091E20080618093E2008091D8008E
:103EA00080628093D80019BC85E08093E1020E9473
:103EB0004D1B8091E10084FF2BC08091E20084FFC4
:103EC00027C080E189BD82E189BD89B5982F9170B5
:103ED00080FFFBCF8091D8008F7D8093D8008091A8
:103EE000E1008F7E8093E1008091E2008F7E8093DD
:103EF000E2008091E20081608093E2008091DD0227
:103F0000882309F449C084E08093E1020E94561B93
:103F10008091E10083FF29C08091E20083FF25C0EA
:103F20008091E100877F8093E10082E08093E1024D
:103F30001092DD028091E1008E7F8093E1008091FC
:103F4000E2008E7F8093E2008091E20080618093A6
:103F5000E20042E060E080E00E94FF1D8091F000FE
:103F600088608093F0000E944A1BFF91EF91BF91FF
:103F7000AF919F918F917F916F915F914F913F9101
:103F80002F910F900FBE0F901F90189519BC109293
:103F9000E1020E94471B70CF8091E30087FD93E010
:103FA0009093E102B3CF1F920F920FB60F9211249C
:103FB0002F933F934F935F936F937F938F939F9331
:103FC000AF93BF93CF93DF93EF93FF93D091E9002B
:103FD000DF708091EC00C82FC17080FDC0E81092A6
:103FE000E9008091F000877F8093F00078940E9430
:103FF00017201092E9008091F00088608093F00013
:10400000CD2BCF70C093E900FF91EF91DF91CF915D
:10401000BF91AF919F918F917F916F915F914F91E0
:104020003F912F910F900FBE0F901F901895AAE20D
:10403000B0E0EDE1F0E20C94B72182EE92E0209145
:10404000F100FC012193CF01F2E08A3E9F07B9F70E
:104050000E947B1B8091E80083FF1EC18091E202D9
:104060009091E3029A3008F017C1E92FF0E0EA5589
:10407000FC4D0C94A221803899F0823809F00CC1D3
:104080008091E6028F70873008F006C18093E900C6
:104090008091EB0085FB882780F91092E90006C02B
:1040A0008091DE029091DF02911182609091E80090
:1040B000977F9093E8008093F1001092F100809137
:1040C000E8008E77E5C0882309F4D3C0823009F078
:1040D000E3C08091E4028111D6C08091E6028F7026
:1040E0002FEF280F263008F0D7C08093E9002091E9
:1040F000EB0020FFC8C0933031F48091EB00806268
:104100008093EB00C0C09091EB0090619093EB0026
:1041100021E030E001C0220F8A95EAF72093EA00FF
:104120001092EA008091EB008860EACF8111B4C060
:104130001091E4021F778091E3008078812B8093B7
:10414000E3008091E800877F8093E8000E94331E9F
:104150008091E80080FFFCCF8091E300806880932D
:10416000E30082E0111183E08093E10295C0805862
:10417000823008F091C08091E4029091E5028C3D7C
:1041800023E09207A1F583E08A838AE289834FB70F
:10419000F894DE01139620E03EE051E2E32FF0E0D8
:1041A00050935700E49120FF03C0E295EF703F5F0A
:1041B000EF708E2F90E0EA30C0F0C7968D939D93FC
:1041C0002F5F243159F74FBF8091E800877F80939C
:1041D000E8006AE270E0CE0101960E94421D8091E3
:1041E000E8008B778093E80057C0C096E7CF6091D6
:1041F000E6027091E702AE014F5F5F4F0E947E1CA6
:10420000BC01892B09F448C09091E800977F9093F6
:10421000E80089819A810E94A01DE1CF8038E1F5F4
:104220008091E800877F8093E8008091DD02809391
:10423000F10045CF811130C09091E402923060F5D9
:104240008091E800877F8093E8009093DD020E94D0
:10425000331E8091DD02882311F084E005C0809137
:10426000E30087FDFACF81E08093E1020E94611BA9
:1042700013C08091E402813079F481E0933009F039
:1042800080E08093DF021092E9008091E800877F50
:104290008093E8000E94331E8091E80083FF0AC0EB
:1042A0008091E800877F8093E8008091EB00806236
:1042B0008093EB00AA96E3E00C94D3210895CF936A
:1042C0008091E1028823A1F0C091E900CF70909124
:1042D000EC00892F817090FD80E8C82B1092E900D6
:1042E0008091E80083FD0E941720CF70C093E90001
:1042F000CF910895AA1BBB1B51E107C0AA1FBB1F8A
:10430000A617B70710F0A61BB70B881F991F5A9561
:10431000A9F780959095BC01CD01089597FB072ED4
:1043200016F4009407D077FD09D00E947A2107FC8B
:1043300005D03EF4909581959F4F089570956195B5
:104340007F4F0895EE0FFF1F0590F491E02D099423
:104350002F923F924F925F926F927F928F929F9295
:10436000AF92BF92CF92DF92EF92FF920F931F9383
:10437000CF93DF93CDB7DEB7CA1BDB0B0FB6F89434
:10438000DEBF0FBECDBF09942A88398848885F8474
:104390006E847D848C849B84AA84B984C884DF80E5
:1043A000EE80FD800C811B81AA81B981CE0FD11DC9
:1043B0000FB6F894DEBF0FBECDBFED0108950F9389
:1043C0001F93CF93DF938230910510F482E090E049
:1043D000E091EC02F091ED0230E020E0B0E0A0E0EE
:1043E000309799F42115310509F447C0281B390B82
:1043F00024303105C0F58A819B816115710571F109
:10440000FB0193838283FE0111C0408151810281AF
:10441000138148175907F8F04817590799F410976E
:1044200061F012960C93129713961C933296CF015B
:10443000DF91CF911F910F9108950093EC0210939B
:10444000ED02F4CF2115310519F04217530718F486
:104450009A01BD01EF01DF01F801C2CF9093ED0297
:104460008093EC02D0CFFE01E20FF31F8193919372
:104470002250310939832883DACF2091EA02309122
:10448000EB02232B41F42091020130910301309380
:10449000EB022093EA0220910001309101012115E5
:1044A000310541F42DB73EB740910401509105010B
:1044B000241B350B4091EA025091EB02421753073F
:1044C00008F0B5CF241B350B2817390708F4AFCFF8
:1044D000BC016E5F7F4F2617370708F4A8CF640F23
:1044E000751F7093EB026093EA02FA018193919336
:1044F0009ECFCF93DF930097E9F0FC0132971382B0
:104500001282C091EC02D091ED02DE0130E020E099
:104510002097A1F420813181820F931F2091EA021C
:104520003091EB022817390709F067C0F093EB02CE
:10453000E093EA02DF91CF910895DA01AE17BF0749
:1045400008F040C012964D915C9113979D01411562
:10455000510599F7D9011396FC93EE9312974D915B
:104560005D91A40FB51FEA17FB0779F48081918153
:104570000296840F951FD90111969C938E93828188
:10458000938113969C938E931297B0E0A0E08A815A
:104590009B810097B9F5FE0181919191E80FF91F78
:1045A0008091EA029091EB028E179F0719F61097FF
:1045B00061F51092ED021092EC02D093EB02C093E1
:1045C000EA02B8CFB383A28340815181840F951F43
:1045D000A817B90771F44E5F5F4F8D919C911197A9
:1045E000480F591F5183408312968D919C9193835C
:1045F00082832115310509F0ADCFF093ED02E093F0
:10460000EC0298CFDE01EC01C2CF13961C921E92F1
:104610001297D3CFFB01DC0104C08D91019080196A
:1046200021F441505040C8F7881B990B0895F9991F
:10463000FECF92BD81BDF89A992780B50895A6E175
:10464000B0E044E050E00C946123A8E1B0E042E027
:1046500050E00C946123DC01A40FB51F4150504081
:1046600048F0CB01840F951F2E910E943C234150AE
:104670005040D0F70895262FF999FECF92BD81BD05
:10468000F89A019700B4021639F01FBA20BD0FB690
:10469000F894FA9AF99A0FBE08950396272F0E946C
:1046A0003C230E943B23252F0E943C23242F0C9463
:1046B0003C230196272F0E943C230C943B23DC01D2
:1046C000CB01FC01F999FECF06C0F2BDE1BDF89A1D
:1046D000319600B40D9241505040B8F70895F894C7
:1046E000FFCF0907090759075907BD07D907380739
:1046F0003807DE074F085E085E0826169A162E1643
:10470000F815FC1532160016361642160C169316BE
:104710001016461614164A16721618164E167916E4
:104720001E1654165C1604163A1608163E16221665
:104730005816681682169116F2152A16A1165517E4
:104740005B1744174F17611767176D173B206320DE
:104750004C2163204C219620B7204C210E211A2198
:104760000000EE02200020003A023C0714283C071B
:1047700014E01A151B0E1B071B01E200E900EA00FA
:10478000B500B600B700CD008301CC008A019201CC
:1047900094012102230224022502260227022A0272
:1047A000B300B4006F0070009F01CB019F02A00214
:1047B000818283E200E900EA00B500B600B700CDCF
:1047C000008301CC008A019201940121022302247A
:1047D000022502260227022A02B300B4006F0070ED
:1047E000009F01CB019F02A00281828344476D5C40
:0C47F000031503A80254026D02860200AB
:00000001FF
