:100000000C9470010C948D010C948D010C940C1DBA
:100010000C948D010C948D010C948D010C948D0128
:100020000C948D010C948D010C940E220C94E22200
:100030000C949D1A0C948D010C948D010C948D01DF
:100040000C948D010C948D010C948D010C948D01F8
:100050000C948D010C94401B0C948D010C948D011B
:100060000C948D010C948D010C948D010C948D01D8
:100070000C948D010C948D010C948D010C948D01C8
:100080000C948D010C948D010C948D010C948D01B8
:100090000C948D010C948D010C948D010C948D01A8
:1000A0000C948D010C948D010C948D0100050105BB
:1000B0000205030504050505000601060206030600
:1000C00004060506000701070207030704070507E2
:1000D00000080108020803080408050800090109CE
:1000E00002090309040905090000010002000300D8
:1000F00004000500000101010201030104010501E2
:1001000000020102020203020402050200030103CD
:1001100002030303040305030004010402040304AF
:100120000404050429001E001F00200021002200F5
:100130002B0014001A00080015001700E10004004D
:100140001600070009000A00E0001D001B00060061
:10015000190005003500E300E200280021522900C3
:100160002A00270026002500240023002F0013006A
:1001700012000C0018001C00340033000F000E00A9
:100180000D000B0030003800370036001000110061
:100190004C00E50031002C00215200002900000035
:1001A00000000000000000002B0000000000000024
:1001B00000000000E100000000000000000000005E
:1001C000E00000000000000000000000E000E3008C
:1001D000E2000100010000002A0000000000000011
:1001E00000000000000030002F002E002D00000055
:1001F000000000004F0052005100500000000000BD
:1002000000000000000000004C00E50000000100BC
:100210000100000000AE00AF00DA0281FFD9F1DB7F
:1002200020A4A62EAF00A0C0D30000A1C8D3000018
:10023000AED580A81F408D1420000C0353006F0022
:1002400066006C00650000001A034A006F0073002E
:10025000650066004100640061006D006300690094
:100260006B0000000403090409022200010100A040
:10027000FA09040000010301010009211101000134
:10028000224400070581030800011201000200005A
:10029000000832FC87020100010200010501090685
:1002A000A101050719E029E7150025019508750149
:1002B00081029501750881010507190029FF1500C4
:1002C00026FF009506750881000508190129051506
:1002D000002501950575019102950175039101C0F5
:1002E00011241FBECFEFDAE0DEBFCDBF11E0A0E0EA
:1002F000B1E0E0E6FBE402C005900D92A236B10742
:10030000D9F724E0A2E6B1E001C01D92AA3AB207F3
:10031000E1F70E945E140C9468250C940000823072
:10032000B8F46A30A8F4463098F450E096E0699F3B
:10033000400D511D1124FA019CE3899FE00DF11D30
:100340001124EE0FFF1FEC5DFE4F859194910895EF
:1003500081E090E008950E948F01089581E0089562
:100360000E94AE01089581E008950E94AE010895B3
:100370000E94B501089508950E94BB010895A6E06A
:10038000B0E0E5ECF1E00C94D82449835A839E83D5
:100390003091710189819A8131111AC03E813323D4
:1003A00099F0222389F00E94E407182F682F898191
:1003B0009A810E94C00769817A81812F0E94070F6C
:1003C0002696E3E00C94F4240E94D207182FF3CF72
:1003D0000E94E40769817A81F1CFFC01262F4081D8
:1003E000518162817381848195810E94BF0108954A
:1003F000CF93DF93EC0161E00E94ED01BE010E940A
:10040000B001DF91CF910895CF93DF93EC0160E0CD
:100410000E94ED01BE010E94BC01DF91CF910895C1
:1004200008950E9495060E9410022FEF84E39CE03D
:10043000215080409040E1F700C0000008950E94E4
:1004400011020E94641B08950E9411020E94751BF4
:1004500008950F931F93CF93DF938C0161E00E9467
:10046000ED01EC01B8010E94B801811106C080E0E5
:10047000DF91CF911F910F910895B801CE010E9495
:100480009B198823A1F3B801CE010E94AE168823E0
:1004900071F3B801CE010E940D19882341F3F801D0
:1004A0008581882361F0C330FCE7DF07E9F058F469
:1004B000C115ECE7DE07A9F0C130DC47B9F0C8018F
:1004C0000E94B301D5CFCB358CE7D807A9F0CC3546
:1004D000ECE7DE0771F0CA35DC4789F70E94400C73
:1004E000EECF0E941F02C3CF0E94480C0E9424023C
:1004F000BECF0E94360CE3CF0E94440CE0CF0E9496
:100500007A1A0E94A8020E94561608950E94AC0210
:100510000E947F1A0895089581E008950895CF9369
:10052000DF93D82F0E948C02C82F882319F08D2FBB
:100530000E948E028C2FDF91CF9108950895CF9362
:10054000C82F0E948B028C2F0E948F02CF9108959A
:1005500080E00E949F0208950E94E4190E949F0279
:100560000895CF930E94E419C82F809164018C17DD
:1005700079F0C09364010E94091B60936501709338
:10058000660180936701909368018C2F0E949F02FF
:10059000CF910895442319F08091730108959C012F
:1005A00043E0369527954A95E1F7620F731F8770F0
:1005B000992721E030E001C0220F8A95EAF7FB017C
:1005C0009081922381E009F480E00895FC01E770B6
:1005D000FF2721E030E001C0220FEA95EAF733E07F
:1005E000969587953A95E1F7FB01E80FF91F808111
:1005F000442319F0282B2083089520952823FBCF2E
:100600000F931F93CF93DF938C01DC0114968C9191
:100610001497813071F511968C9111978A3048F5B5
:10062000CC91C63030F5D0E0B6E08B9FC00DD11D27
:100630001124F801458169E671E0CE010E94CA02E9
:1006400040E0882389F0CE01880F991FFC01E35513
:10065000FF4FE491D8011196EC931197FC01E455FA
:10066000FF4FE491EC9341E069E671E0CE010E9416
:10067000E602DF91CF911F910F910895ADE0B0E0B8
:10068000E4E4F3E00C94D924488759876A877B8790
:100690008C879D8791110E946E0B8C85882321F099
:1006A000CE0108960E9400031F8286E0FE01389664
:1006B000DE01119601900D928A95E1F78D818111ED
:1006C0000DC029813A814B815C816D817E818F8152
:1006D0000E947B0A2D96E2E00C94F524CE0101964F
:1006E0000E94F8018111EDCFF5CFCF93FC01C481B9
:1006F000C13089F4808191810E94160892959F7083
:10070000963049F4863F39F0809173018C278093AD
:100710007301C0937201CF910895CF93C82F88239E
:10072000B9F08CEF8C0F813AA8F46C2F8091000106
:10073000909101010E94151A882329F08C2F0E94A4
:10074000080B0E94A70B8C2F0E94000B0E94A70B86
:10075000CF91089580E28C0F8830D0F7C77081E088
:1007600001C0880FCA95EAF70E94510BEFCF88238A
:1007700041F09CEF980F913A28F40E94080B0E94D8
:10078000A70B089590E2980F9830D8F7877091E002
:1007900001C0990F8A95EAF7892F0E94570BEFCF76
:1007A0001F93CF93DF93182FEB010E948D032097A7
:1007B00039F4812F0E94B703DF91CF911F910895E3
:1007C0008FE99FE00197F1F700C000002197EFCF7C
:1007D0006AE070E0893311F460E570E00E94D003B4
:1007E0000895882321F00E94510B0E94A70B0895C1
:1007F000882321F00E94570B0E94A70B0895B0E0B8
:10080000A0E0E5E0F4E00C94D2246C01C62F172F91
:10081000FC01D581068102950F700E94470BE82EDE
:10082000882301F1DD2359F1812F807F803471F01D
:1008300090E29C0F983018F1011104C0912F907E26
:100840009032E9F0803611F4C63FC9F080917A0207
:1008500082FF15C082E00E940A0C0E94470B91E0C3
:10086000E82EE926B12EB2949FE0B922FBE0FB15F9
:10087000C0F1EB2DF0E0E659FA4D0C94C324E12CC5
:10088000F1CF012F0F70812F807F11F00295007F33
:10089000DD2399F0002359F080E28C0F883010F0AE
:1008A000C11107C0802F0E94510B0E94A70B8C2FF3
:1008B00065C0802F0E94610BF8CF8C2F0E94B70378
:1008C000002379F080E28C0F883010F0C11104C051
:1008D000802F0E94570B03C0802F0E94670B0E943D
:1008E000A70B2B2D2850330B2430310520F40E9408
:1008F000E4190E949F02DD2339F0107F103611F4B5
:10090000C63F11F00E943A0BEE2089F00E941D0BA9
:1009100080FD0DC0F60115820E94170B0E941E0774
:10092000C6010E9468060E94170B0E942E07CDB7D1
:10093000DEB7E9E00C94EE24212F2F70F22E812FE8
:10094000807F803219F0F29480EFF822CC2341F0BE
:10095000C130D1F1DD2309F444C00023F1F0A7CF69
:1009600080917A0282FD15C0DD2359F0FF2029F025
:100970008F2D0E94510B0E94A70B80E00E948D03D7
:10098000B0CF80E00E94B703FF2009F4AACF8F2DDB
:10099000A0CFDD2369F0011104C08F2D0E94F10367
:1009A000A0CF013009F09DCF8F2D0E94850B99CFEC
:1009B000011197CF8F2D0E94F8038F2D0E94910B6C
:1009C0008F2D0E94750B8DCFDD2321F0063008F0AE
:1009D00088CFE3CF053008F084CF8F2D0E94F80335
:1009E00080CF0023D1F3C93369F43FEF87EE93E062
:1009F000315080409040E1F700C000008C2F0E94F1
:100A0000B7036FCFEFE3FCE93197F1F7F5CF812F13
:100A10008370A9F5D11165CF2C2F229526952770CB
:100A2000220F220F4C2F4F7050E0022E02C0440FB5
:100A3000551F0A94E2F790E080E0C4FF09C08FE000
:100A400090E002C0880F991F2A95E2F78095909553
:100A5000212F269526952370842B952B223049F043
:100A600058F4213019F00E94EE063BCF0E94E506B3
:100A700038CF0E94F70635CF0E94E20632CF869526
:100A8000DD2311F0812F8170882309F42ACF2C2FC8
:100A9000229526952770220F220F4C2F4F7050E081
:100AA000022E02C0440F551F0A94E2F790E080E046
:100AB000C4FF09C08FE090E002C0880F991F2A95FB
:100AC000E2F780959095212F269526952370842B0B
:100AD000952B223049F058F4213019F00E94590723
:100AE00000CF0E945007FDCE0E946207FACE0E94FE
:100AF0000607F7CE012F0F70DD2329F0802F0E940B
:100B00001E078C2F4BCF8C2F0E94F803802F0E9442
:100B10002E07E7CEC23F41F160F4C03FB9F0C13FBC
:100B200081F0DD2309F447C00111C1CE812F8F71FF
:100B30001FC0C33F01F1C43FA1F780917A0282FD3B
:100B400024C0812F8F71DD2311F312C0DD2341F00A
:100B5000053008F0C6CE812F8F710E944007C1CEAC
:100B6000063008F0BECEF7CF812F8F71D111CFCFD5
:100B70000E941E07B6CEDD2329F0812F8F710E94BF
:100B80001207AFCE0E940D07ACCEDD2351F0012F2E
:100B90000F71802F0E941E0763E0802F0E94EC0BD4
:100BA000A0CE81E00E940A0C023008F49ACE82E0C6
:100BB0000E940A0C96CE002379F0C93341F4FFEF6E
:100BC00027EE33E0F15020403040E1F715CF8FE3BE
:100BD0009CE90197F1F710CF812F8F7198CFE0E159
:100BE000EC0FE73090F5F0E0EA58FA4D0C94C3248E
:100BF000DD2309F476CE8091730191E089278093FB
:100C000073016FCED09373016CCE81E08D27F7CF47
:100C100081E0DD23A1F365CED11163CE1092730183
:100C200060CEDD2319F00E94210B5BCE0E942D0BBC
:100C300058CEDD2339F0809172018823E1F21092C1
:100C400072014FCE0530B8F24CCE80917201002374
:100C5000D9F0882341F08091730191E08927809336
:100C6000730110927201D11122CEEFE3FCE93197AA
:100C7000F1F700C000008C2F0E94B70387E0F60157
:100C800011928A95E9F72DCE882309F42ACED11145
:100C900028CE8091730191E0892780937301CFCF93
:100CA0000F931F93CF93DF93EC01688179818D813E
:100CB0000E9421088C010E946B070E94E106B80186
:100CC000CE010E94FF03DF91CF911F910F910895F4
:100CD000CF93DF93EC018C81882399F0CE010E94A1
:100CE0002902811111C00E94470B882351F08D8188
:100CF000882339F080917A0282FF03C082E00E944B
:100D00000A0CDF91CF910895CE010E945006CE01CA
:100D10000E940402F6CF0E946E0B0E94A70B08955A
:100D20000E94100B0E948B0608950E945E0B0E9489
:100D30009006089592959F70963091F058F4925FC6
:100D40009F70923058F4803F19F030F4883E30F4B0
:100D500081E008959A5FF4CF843FD1F380E0089555
:100D6000883EB0F3813FD1F7F3CFFC0124812223E9
:100D700039F0808191810E9416080E949A06089598
:100D800080E00895A6E0B0E0E8ECF6E00C94D92409
:100D90002696E2E00C94F524A7E0B0E0E2EDF6E060
:100DA0000C94D9242796E2E00C94F52408950E942F
:100DB000D60608950E94D7069093970180939601D6
:100DC000089508950E94DA060895209196013091C1
:100DD0009701822B932B0E94DA06089520919601A9
:100DE00030919701822393230E94DA06089520917F
:100DF000960130919701822793270E94DA06089581
:100E00000E94D60608950E94000708950E940307D5
:100E10009093950180939401089590E080E00E9462
:100E20000607089521E030E0A90102C0440F551FD4
:100E30008A95E2F7CA010E940607089521E030E092
:100E400002C0220F331F8A95E2F78091940190919E
:100E50009501822B932B0E940607089521E030E034
:100E600002C0220F331F8A95E2F7209530958091BA
:100E7000940190919501822393230E94060708957F
:100E800021E030E002C0220F331F8A95E2F7809103
:100E9000940190919501822793270E940607089557
:100EA0002091940130919501822B932B0E9406078B
:100EB00008952091940130919501822393230E94FB
:100EC0000607089520919401309195018227932778
:100ED0000E94060708950895262F277091E001C00B
:100EE000990F2A95EAF723E0769567952A95E1F719
:100EF000660F771F660F771FFA01E60FF71F50E0A6
:100F000040E0682F70E08191DF0111979B01042E72
:100F100002C0369527950A94E2F72170219528277B
:100F2000292328272C934F5F5F4F4430510559F7F1
:100F30000895A82FA77023E0969587952A95E1F745
:100F4000880F991F880F991FFB01E80FF91F50E0C8
:100F500040E080E0219130E00A2E02C036952795CE
:100F60000A94E2F721703327042E01C0220F0A945D
:100F7000EAF7822B4F5F5F4F4430510559F70895D0
:100F8000262F9A3070F4863060F4682F70E086E087
:100F9000989F600D711D112444E751E0822F0E943B
:100FA0006C070895292F9A3068F4863058F490E041
:100FB00064E771E036E0239F800D911D11240E94AB
:100FC0009907089580E00895B0E0A0E0EAEEF7E028
:100FD0000C94D2247C010091940110919501809190
:100FE000960190919701082B192BCFE0D0E0CC24EB
:100FF000C394D12CBC2EC6010C2E02C0880F991FA1
:101000000A94E2F780239123892B49F4219790F7E2
:10101000B12C8B2DCDB7DEB7E9E00C94EE24B701EF
:101020008C2F0E94130F019789F3F3CFCF93DF9397
:10103000EC010E94E407BE010E94130FDF91CF91E3
:1010400008951F93CF93DF93EB0190917101992342
:1010500039F0CB010E941608DF91CF911F910895BE
:10106000882369F0CB010E94E407182F682FCE0176
:101070000E94C007BE01812F0E94130FEDCFCB014C
:101080000E94D207182FF6CF1F93CF93DF93C09102
:10109000980117E0809199018C1304C0DF91CF91E2
:1010A0001F910895D0E01C9FF0011D9FF00D1124A9
:1010B000E656FE4F208131814281538164817581E2
:1010C00086810E94CC062196C770E4CF2091D20180
:1010D0003091D3014091D4015091D5016091D60156
:1010E0007091D7018091D8010E94CC060895CF93CA
:1010F000DF938091D801807F09F04DC08091D701A6
:10110000882309F448C0E091980150919901C09159
:10111000D301D091D2016091D4017091D50147E003
:101120005E17C9F18E2F90E0E49FF0011124E6567E
:10113000FE4F2481222391F1489FF001499FF00D39
:101140001124DF01A656BE4F11962C9111972C1336
:1011500025C02C912D1322C015962C911597211185
:101160001DC012962D913C91261B370B243631055C
:10117000A8F48091D8018F7080618093D801E056E7
:10118000FE4F80818F708061808382ED91E00E94AC
:1011900068060E944408DF91CF910895FC013196C2
:1011A000E770BECF482F209198019091990157E0A8
:1011B000291302C080E0089530E0529FF001539F50
:1011C000F00D1124E656FE4F8181681306C0808120
:1011D000481303C085818111EECF2F5F3F4F2770E9
:1011E000E7CFA4E1B0E0E7EFF8E00C94CF248C0166
:1011F00086E0F801DE011F9601900D928A95E1F7D5
:10120000F8018481E58092EDA92E91E0B92E9091AC
:10121000D60191111FC08823D1F0EE20A9F0C8019A
:101220000E94B506F82E882379F087E0F801D501F1
:1012300001900D928A95E1F7C5010E9475030E9405
:1012400077080E9466085FC0C8010E946806FF24F4
:10125000F39459C0C080D18082809380F090D701F0
:101260002091D4013091D501A401421B530BFF20E2
:1012700009F4F9C04436510508F0A7C0882309F4E1
:1012800042C09091D3018091D801282F207F09F08E
:101290005CC09D1116C09091D201C91212C0E1101C
:1012A0004EC08F7080618093D8010E94660882EDE5
:1012B00091E00E9468068091D801F8018683F12CA4
:1012C00022C0E1103CC06D2D8C2D0E94D2086D2DE6
:1012D0008C2D0E94D208E82E8111F1CFCF86D88ABA
:1012E0008F8598890E941608292F22952F70243007
:1012F00078F49F702230A8F09923B9F0F801968114
:10130000907F99F4FE2C8F2D6496ECE00C94EB24E6
:101310002A5F2F70223068F0C8010E946806EF2C07
:10132000F1CF992311F0882369F3805E883050F360
:10133000F3CF803F38F3815F833070F7E3CF809144
:10134000D80181608093D801BACF9D1113C09091CC
:10135000D201C9120FC0E1100DC08683C8010E94DE
:10136000680687E0F801A2EDB1E001900D928A9540
:10137000E1F767CFC8010E94B506882309F464CF5E
:10138000EE2009F461CF8091D801803288F020915D
:10139000D2013091D301398728879B868A86909124
:1013A000D6019C871D868E87CE0108960E9468060E
:1013B00087E0F801A2EDB1E001900D928A95E1F786
:1013C0000E9477080E94660842CF9091D801292F89
:1013D000207FA1F4682D9A8A898AA6017A899E2D98
:1013E0000E94C20682ED91E00E94680687E0F50146
:1013F00011928A95E9F70E94660861CF882309F463
:1014000082CF8091D3018D1110C08091D201C8127A
:101410000CC0E1100AC09683C8010E94680687E0EC
:10142000F50111928A95E9F76ECFC8010E94B506C1
:10143000882309F409CFEE2009F406CF8091D80162
:10144000803208F4B5CF2091D2013091D3013A8394
:1014500029839C828B829091D6019D831E828F83EB
:10146000CE010196A3CF44365105B8F5882309F47F
:10147000EECEFE2CEE2009F4E7CE8091D3018D1143
:101480001EC08091D201C8121AC08091D80180FD7F
:101490000DC0982F907F51F08683903F09F45ECF66
:1014A000982F907F905F8F70892B57CF87E0F8013E
:1014B000A2EDB1E001900D928A95E1F724CFC80129
:1014C0000E94B506811174CF8091D801816080930C
:1014D000D801C8010E94680616CF682D9A8A898AA9
:1014E000A6017A899E2D0E94C20687E0F50111921D
:1014F0008A95E9F7A6CEAEE0B0E0E1E8FAE00C9418
:10150000D824288739874A875B876C877D878E87B1
:10151000CE0108960E94F1088823B1F06C856623FD
:1015200041F0288539854A855B857D858E850E94B9
:10153000CC0617E0809198019091990189133DC0E4
:101540002E96E3E00C94F42487E0FE013896DE0149
:10155000119601900D928A95E1F78C85882349F3C5
:101560002091990130E0C901019687709927409137
:1015700098014817190699F097E0929FD001939F20
:10158000B00D1124A656BE4FFE01319601900D926A
:101590009A95E1F7809399010E944408CACF0E946E
:1015A0009506109299011092980187E0E2EDF1E022
:1015B000DF011D928A95E9F7BCCF819FC0011124FC
:1015C00086569E4F0E94F108882309F4B9CFE09116
:1015D00098011E9FF0011124E656FE4F20813181B3
:1015E000428153816481758186810E94CC068091FD
:1015F000980190E0019687709927809398019ACF7F
:10160000682F80910001909101010E944B1A08956A
:10161000682F80910001909101010E944E1A089557
:1016200080910001909101010E94511A08958091CA
:10163000E20186958695869508958091E2018770EE
:10164000089582E08093E10181E080937301089521
:101650001092E1011092730108958091E1018230AE
:1016600021F481E08093E1010895833011F40E9418
:10167000280B08958091E101823021F483E080936A
:10168000E1010895813011F40E94280B0895909192
:10169000E201977081E009F480E008958091EE0105
:1016A00008959091EE01892B8093EE010895809525
:1016B0009091EE0198239093EE0108951092EE011F
:1016C00008959091ED01892B8093ED010895809507
:1016D0009091ED0198239093ED0108951092ED0102
:1016E000089508950E94710B08959091E301292FA8
:1016F000282331F0809589238093E3010E94720BA7
:10170000089508950E94810B08959091E401292F76
:101710002823281729F0982B9093E4010E94820B2C
:1017200008959091E401292F282331F08095892391
:101730008093E4010E94820B08958091E401882344
:1017400029F01092E40180E00E94820B0895CF936B
:10175000DF93E0910001F09101018091EE0180831F
:10176000E0910001F091010180819091ED01892BC0
:1017700080839091E401992381F0E0910001F09140
:1017800001018081892B808380910001909101016A
:101790000E94031A81110E949D0BC0910001D091FB
:1017A000010148E050E069ED71E0CE010E940025A2
:1017B000892B59F088E0FE01A9EDB1E001900D926E
:1017C0008A95E1F7CE010E94F819DF91CF91089533
:1017D00008950E94E80B089590917A0292FF11C03B
:1017E00098E0899F90011124622B6093E2010E948E
:1017F0001E078091E2018695869586950E94E90BE9
:1018000008950E941E0708951092E20180E00E9450
:10181000E90B08959091E201809589238093E2017C
:10182000282F277069F4891759F090917A0292FF56
:1018300007C08695869586950E942E070E94040C07
:10184000089590917A0292FB222720F9281769F0D7
:1018500080FB92F990937A028091790290917A02BA
:101860000E94690C82E00E940A0C089580917A021D
:1018700082FB882780F991E089270E94210C089536
:1018800081E00E94210C089580E00E94210C0895BF
:101890006FEF7FEF90E080E00E945225089590E086
:1018A00080E00E941E2521E0863E9E4F09F020E048
:1018B000822F089582E090E00E941625089583E02B
:1018C00090E00E941625089584E090E00E941E2575
:1018D0000895BC0184E090E00E9452250895AB0178
:1018E000BC018FE090E00E9446250895AB01BC0149
:1018F00083E190E00E944625089560E070E0CB010E
:101900000E94760C089560E070E0CB010E946F0C9D
:101910000E947D0C0895A8E0B0E0E1E9FCE00C94A1
:10192000D92466EE7EEF90E080E00E94522560E0D0
:1019300082E090E00E94342560E083E090E00E9425
:101940003425109297011092960160E074E184E0D2
:1019500090E00E94522560E086E090E00E943425ED
:101960006FEF87E090E00E94342540E050E0BA013C
:1019700088E090E00E94462560E084E290E00E94CA
:10198000342560E087E190E00E94342560E08CE03F
:1019900090E00E94342560E08DE090E00E943425C4
:1019A00019821A821B821C821D821E821F82188647
:1019B00048E050E068E170E0CE0101960E942425E5
:1019C00040E050E0BA0180E290E00E9446250E948B
:1019D000830C2896E2E00C94F5240E948B0C089569
:1019E000682F8EE090E00E9434250895A6E0B0E0D4
:1019F000ECEFFCE00C94D7240E94FD1A8C0180913E
:101A0000EF019091F0018017910781F019821A82FD
:101A10000E94FD1A682F49815A81792F80E090E059
:101A20000E943E031093F0010093EF012696E4E03C
:101A30000C94F3240E942F1060930302709304020D
:101A400080930502909306026093FF017093000259
:101A5000809301029093020208950E942F106093D8
:101A60000302709304028093050290930602609330
:101A7000FB017093FC018093FD019093FE0108959A
:101A8000089508950E94400D089508950E94450DFF
:101A9000089581E0089589E490E10E946B140E940A
:101AA000410D0E94420D08950E9415120895089557
:101AB00008950E94570D0E94580D08950E944C10E1
:101AC0000E949E0208950E94F41A0E9409100E942A
:101AD00030120E94AA170E9476110E945E0D0E9489
:101AE000701480E00E94EE140E943A120E94460D8B
:101AF0000895A6E0B0E0EFE7FDE00C94CF240E944B
:101B0000490DC82E811111C00E94F60CC12C0E94F3
:101B100015120E942E18882309F45DC00E942D0D15
:101B20000E9476160E9451155AC00E94991181EFA9
:101B3000A82E81E0B82E750110E0F70101917F0118
:101B4000812F0E9472101F5F1A3009F441C00817DC
:101B5000A1F38091070281FD0E9478100E94540D2C
:101B6000982E10E088248394812F0E947210082FF1
:101B7000F50181915F01081729F1F12CEE24E3941E
:101B8000D02ED8268D2D8E21A9F0992099F0F9829A
:101B90001A830E94FD1A9C838B838D8291E0802F93
:101BA0008E2109F490E049815A816B817C818D817D
:101BB0000E943E03F394EE0CF6E0FF12E3CFF50132
:101BC000319700831F5F1A3079F60E941A0D9FCF5C
:101BD0000813BFCF99CF0E947616C110A3CF0E94E1
:101BE000B1022696ECE00C94EB240F931F93CF9355
:101BF000DF930E94180FEC01C03282E5D80708F08D
:101C000040C0C11582E5D80708F094C0C11580E234
:101C1000D80710F5C11581E0D80708F07AC0C03E9A
:101C2000D10588F4CD3CD10508F071C0C130D10593
:101C300069F0209759F0CE010497813A910530F070
:101C4000D0E0C0E003C0C83ED105D0F7CE01DF919F
:101C5000CF911F910F910895C11580E5D80708F025
:101C6000ACC08E011127C11580E4D80708F4BFC0AD
:101C7000C8010E94180FCC27DF70C82BD92BD06A5F
:101C8000E5CFC03A82E5D80720F5C03882E5D8070D
:101C900008F080C0C03682E5D80708F066C0C034BE
:101CA00082E5D80708F45AC02C2F26952695277070
:101CB00080E2289F900111248C2F8370C1E0D0E036
:101CC00002C0CC0FDD1F8A95E2F7C22BD32BDC6854
:101CD000BDCFC03E82E5D80760F4C03C82E5D8079E
:101CE00008F45FC0DC2FCC27CC27DF71C06FD06A2F
:101CF000ADCFCE0196558F3F910511F008F0A0CFE2
:101D0000CE0199270E94180FEC01D0669FCFD065B5
:101D10009DCF8D2F0E94BA0F182FCE0199270E94B8
:101D2000180FC12FD0E0DC2FCC27CC27DF71C82BB8
:101D3000D92B8CCF2C2F2695269580E2289F9001B9
:101D400011248C2F8370C1E0D0E002C0CC0FDD1FC6
:101D50008A95E2F7C22BD32BDD6878CFCF71D0E024
:101D6000DC2FCC27C16FD06A71CF2C2F26952695FA
:101D7000277080E2289F900111248C2F8370C1E08E
:101D8000D0E002C0CC0FDD1F8A95E2F7C22BD32B27
:101D9000DA685CCFCF71D0E0DC2FCC27C46FD06A7B
:101DA00055CF8C2F8F710E94BA0FC82FD0E0DC2F37
:101DB000CC27CC27DF71D06249CF8C2F8F710E9446
:101DC000BA0F55E0D695C7955A95E1F7CF70D0E098
:101DD000DC2FCC27282F30E084FF05C044E0220F01
:101DE000331F4A95E1F7C22BD32BD0692FCF8D2F0C
:101DF0008F710E94BA0FC82FC8010E94180FD0E03F
:101E0000DC2FCC27CC27DF71C82BD92BD4CF462F82
:101E10007A3030F4663020F4672F0E94AB010895C9
:101E200090E080E008950E94070F0E94F50D08954C
:101E300082389105B9F1B0F48133910509F47DC080
:101E400048F48932910509F46DC08A32910509F48C
:101E50007BC008958533910509F45FC089339105EE
:101E600009F10895833E9105D9F138F4803E91053A
:101E700029F1823E910579F10895863E9105D9F1C7
:101E8000873E910509F43EC0843E910541F52091BD
:101E90007A0221FF24C08091790284FD19C087EE67
:101EA00090E0089520917902237009F05AC02091A2
:101EB0007A0223FF14C089E290E00895209179020C
:101EC00020FD38C030917A0230FF09C024FF43C0A2
:101ED00090E080E008952091790222FDF7CF0895E7
:101EE0002091790222FD3AC030917A0230FD39C04A
:101EF00024FFF5CFEDCF2091790223FFF0CF24FD11
:101F0000E7CFCDCF2091790223FD2EC030917A0208
:101F100031FFEECF84EE90E008952091790225FF05
:101F2000DECFC9CF2091790225FD21C020917A0210
:101F300023FFD5CF89E390E0D2CF2091790226FF0D
:101F4000CECF8AE290E008952091790226FFC7CF94
:101F500081E390E0089583EE90E0089582EE90E0B2
:101F6000089580EE90E0089586EE90E0089585E370
:101F700090E008959091790292FF10C041E0282FDF
:101F80002471243009F040E031E0282F28712830F6
:101F900009F030E0431711F02CE0822793FF10C0C6
:101FA00041E0282F2471243109F040E031E0282F4E
:101FB0002871283109F030E0431711F02CE0822716
:101FC00030917A0230FF10C051E0282F217121306A
:101FD00009F050E041E0282F2871283009F040E056
:101FE000541711F029E0822731FF10C041E0282F5B
:101FF0002171213109F040E031E0282F287128318A
:1020000009F030E0431711F029E0822794FD877E24
:102010000895109275021092760210927702109233
:1020200078020895CF92DF92EF92FF926B017C01CC
:102030000E94151281110EC00E94091BC61AD70AF0
:10204000E80AF90AC0927502D0927602E09277020D
:10205000F0927802FF90EF90DF90CF9008950F9369
:102060001F930E941512882329F00E94091B1F91BB
:102070000F9108950E94091B00917502109176023C
:102080002091770230917802600F711F821F931F99
:10209000EECF80E0089508950E944F0C811102C098
:1020A0000E94ED0C0E945A0C809307020E94640C5F
:1020B00090937A02809379020E944B100E945F0CE9
:1020C00090E00E94E20680919401909195010E9417
:1020D0000307089508950E946A10089508950E94C4
:1020E0006E100895E82FF0E0EA57FD4F80810895C3
:1020F000089580EA8A95F1F7089500C008950E9436
:102100007910089508950E9482100895A5E0B0E026
:10211000ECE8F0E10C94D5240E941512F82E6091A1
:102120009002882309F440C085E0E82E8E010F5FFD
:102130001F4FF8018E2D11928A95E9F7862F90E0B6
:10214000B8018A579D4F0E9448128823B9F08091A8
:102150007B0290E045E050E0B8018A579D4F0E9415
:10216000002521E020930802892B91F4F12C0E9494
:102170006F108F2D2596E6E00C94F12480910802D3
:102180008823A1F3F8011192EA94E9F7109208026A
:10219000A0917B02B0E0AA57BD4F85E0F801019005
:1021A0000D928A95E1F7E3CF70E06A577D4F8091F9
:1021B0007B0290E08A579D4F0E94CF120E948310AD
:1021C000D8CFF894E82FE295EF70F0E031A1282FF6
:1021D0002F7081E090E001C0880F2A95EAF7982FD0
:1021E0009095932391A392A1892B82A3789408952B
:1021F0000F931F93CF93DF93C3E4D1E089918F3F77
:1022000011F00E94E11081E0C834D807B9F7CDE39E
:10221000D1E003E411E089918F3F11F00E94E110B9
:102220000C171D07C1F7DF91CF911F910F910895F2
:10223000B0E0A0E0EEE1F1E10C94D324EC01D62E65
:10224000062F10E0C8018D5B9E4F7C01FC01808150
:102250008F3F09F444C0F894E82FE295EF70F0E066
:1022600091A18F7021E030E001C0220F8A95EAF73A
:10227000892F822B81A382A12095282322A37894E1
:102280000E947D10EDE3F1E031E0C12C21912F3F60
:1022900059F1A22FA295AF70B0E090968C9190E08A
:1022A0002F7002C0959587952A95E2F780FD1CC096
:1022B000832FC82A330F81E0E334F80739F7F70199
:1022C00080818F3F11F00E94E11061E0C11001C0D8
:1022D00060E08D2D0E947F10C00FD11FC882CDB746
:1022E000DEB7E8E00C94EF2480E0E3CF80910201B8
:1022F0008091020195E0811190E09093900285E039
:10230000891B80937B020E94F8108AE0E6E8F2E0E5
:10231000DF01982F1D929A95E9F7ECE7F2E0DF01D3
:102320001D928A95E9F785E00E94D7110E946B10F3
:102330000895AAE0B0E0EFE9F1E10C94D6248E0113
:102340000F5F1F4F8AE0F80111928A95E9F7F12C8F
:102350006F2DC8010E941811F394F5E0FF12F8CF19
:102360004AE050E0B8018CE792E00E94002521E0AD
:10237000009709F420E0892B41F08AE0F801ACE7EE
:10238000B2E001900D928A95E1F76091900270E0C1
:102390006A577D4F45E08CE792E00E94D811182FD4
:1023A0000E948610812B2A96E5E00C94F224089571
:1023B000CF92DF92EF92FF920F931F93CF936C0116
:1023C0007B01042F222349F081E080930B020E94BD
:1023D000FD1A90930A0280930902C0910B02C11169
:1023E0000AC0C0E08C2FCF911F910F91FF90EF900A
:1023F000DF90CF9008958091090290910A020E9487
:10240000151B059770F310E0A801B601C7010E94E3
:102410000025892B41F0A801B601C7010E940D25B6
:1024200010920B02DFCFC0E0FBCF80910E02811132
:1024300007C00E948E24882351F081E080930E0211
:1024400081E090910E02913009F080E0089582E0E1
:1024500080930E020E948924F3CF0E9415120895E2
:102460000E942D12809302010E94151281110E9478
:102470007E1208950E941512811102C00E948112DD
:10248000089581E090910F029A3008F080E008955D
:102490000F931F93CF93DF93EC018B0180910F0279
:1024A0008A30B8F4B801CE010E94CC12C82F811135
:1024B00022C080910F028F3FB9F40E94FD1A9093C1
:1024C0000D0280930C028C2FDF91CF911F910F9101
:1024D000089580910C0290910D020E94151B843F7B
:1024E000914000F7C0E0EFCF8F5F80930F028A30FA
:1024F00020F7C1E0E8CF10920F02E5CF0E94C61C82
:1025000008950E94C91C0895B0E0A0E0EAE8F2E155
:102510000C94D4247901C82F880FDD0B4115510587
:10252000A9F0FE0193E0EE0FFF1F9A95E1F7ED5F32
:10253000FE4F81819281805F9D4F208130E0421764
:10254000530708F49A01A9010E940D25CE010E94AB
:10255000B21DD82E8823D1F001151105B9F083E002
:10256000CC0FDD1F8A95E1F7FE01ED5FFE4F438141
:1025700050E00417150708F4A801CD5FDE4F6C8109
:102580007D81605F7D4FC7010E940D258D2DCDB7E8
:10259000DEB7E7E00C94F0240E94E81308950E944F
:1025A00009140895A4E0B0E0E8EDF2E10C94D7241A
:1025B00060912D0270912E0280912F029091300235
:1025C0000E94241B11E0643671058105910518F104
:1025D0000E942F106E5F7F4F8F4F9F4F69837A83CA
:1025E0008B839C8310E000E030E020E044E050E08A
:1025F000BE016F5F7F4F84E00E948412182F8823F2
:1026000051F00E94091B60932D0270932E0280935B
:102610002F0290933002812F2496E4E00C94F3244F
:10262000A1E0B0E0E6E1F3E10C94CE24762E4A017D
:102630005901680101E010E09E012F5F3F4F50E01B
:1026400040E070E060E00E948412182F882399F126
:10265000F40160817181828193810E94241B643620
:1026600071058105910500F18701950150E040E079
:1026700070E060E0872D0E948412B82EB701C60179
:102680000E94711411E09981981310E01B2139F018
:102690000E94091BF4016083718382839383812FDD
:1026A0002196EDE00C94EA24B701C6010E94711452
:1026B00099818913D9CFA701B601C5010E940D25C3
:1026C000EECFA1E0B0E0E7E6F3E10C94D524009171
:1026D000480110914901095F1F4FEE24E394F12C4A
:1026E0009E012F5F3F4F49E252E063E082E00E948B
:1026F0001013182F882321F0CE0101960E94C918CB
:10270000812F2196E6E00C94F124A5E0B0E0EBE8FF
:10271000F3E10C94D3246B0100914801109149011D
:102720000F5F1F4F85E0E82EF12C9E012F5F3F4F7A
:1027300045E252E061E080E00E941013882349F0F6
:1027400095E0FE013196A0E2B2E001900D929A95DB
:10275000E1F795E0E0E2F2E0D60101900D929A9562
:10276000E1F72596E8E00C94EF24B0E0A0E0EBEB75
:10277000F3E10C94D1247C015B016A010E944112B7
:1027800001E010E0882311F00AE010E0C1E0D0E0A1
:10279000B501C701F6010995811104C021960C17F6
:1027A0001D072CF4CDB7DEB7EAE00C94ED24CC9FE6
:1027B0009001CD9F300D300D112490E080E045E375
:1027C0004A95F1F70000019682179307C1F7E0CF11
:1027D0000F931F93CF93DF93EC018B0145E853E1F7
:1027E0000E94B513811106C080E0DF91CF911F9147
:1027F0000F91089541E653E1B801CE010E94B5134F
:10280000882391F342ED52E1B801CE010E94B51345
:10281000ECCFA1E0B0E0EFE0F4E10C94D72400911C
:10282000480110914901C801019625E0FB01DC0136
:1028300001900D922A95E1F765E070E00E94711415
:10284000F8018083CE0101960E94BE188981F801AB
:10285000878361E070E0CE0101960E947114F80157
:102860008683608571858285938500911C02109115
:102870001D0220911E0230911F026017710782070E
:10288000930751F060931C0270931D0280931E0207
:1028900090931F020E9412102196E4E00C94F324FE
:1028A0000E94711F0E94630D0E947E1F08950E9466
:1028B000831F0E94790D0E949D1F08950E94961A01
:1028C0000E94571F0E944B0D0E9450140E945714E3
:1028D0000E94590DFBCF909363018093620108958C
:1028E0000895FC01680F791F8FEF91E3E617F70752
:1028F00009F408952191822728E030E087FF06C07F
:10290000880F892721503109C9F7F0CF880FFACFF6
:10291000AB0124E630E0BC0188E70E94201C21E0E6
:10292000892B09F020E0822F0895B0E0A0E0EBE9C8
:10293000F4E10C94D3246C017B0164E670E088E739
:102940000E94861B8C01E601EC0CFD1CCE15DF05F8
:1029500061F40E94681C81E00115110509F080E016
:10296000CDB7DEB7E8E00C94EF2417FDF2CFFE01FF
:10297000849164E670E00E94F21B8C012196E6CF00
:102980000F931F939B0104E610E0AC0160E488E71D
:102990000E94411C21E0892B09F020E0822F1F9129
:1029A0000F9108950E94801B089508950E94D514E8
:1029B0000895E1E9F2E080E092E0DF019C011D92E0
:1029C00021503040E1F7F0939804E09397048FEFA3
:1029D0009FEF90935702809356020895CF930E94E1
:1029E000D5140E94D6148093520280FD11C080E855
:1029F000809351020E94D2146BE070E08FE292E06B
:102A00000E949514811106C0C0E08C2FCF910895CB
:102A100080E2EECF8091520265E070E081FD27C038
:102A20008AE292E00E949514882371F36DE070E0D1
:102A300088E192E00E949514C82F882329F30E9410
:102A4000091B605A75418F4F9F4F60939304709399
:102A5000940480939504909396040E94D91481E085
:102A6000809355028093540210925302CECF85E298
:102A700092E0D8CF2091510236E0839FC00111240B
:102A8000629F800D911D1124811522E0920714F0A0
:102A900090E080E08F569D4F909398048093970428
:102AA000089580915502811103C0809154020895C8
:102AB0000E94091B605A75418F4F9F4F609393048A
:102AC000709394048093950490939604809154029B
:102AD0008111EBCF62E070E086E192E00E949514F4
:102AE000882319F381E080935402DFCFB0E0A0E0A7
:102AF000ECE7F5E10C94CD248091560290915702B9
:102B0000892B09F4B6C080915502882309F4B1C01D
:102B1000809153028111ADC00E945115209156023F
:102B2000309157022115310509F4A3C090E041E02E
:102B300050E0092F10E0EA01092E02C0CC0FDD1F82
:102B40000A94E2F7BE0162237323672B11F49F5F9F
:102B5000F0CF8091520280FF91C0990F990F990F89
:102B600090932D0110923001995F90932E0183E094
:102B70008093310167E070E08BE291E00E9488145D
:102B8000882309F476C0980145E0220F331F4A9547
:102B9000E1F78091520280FF83C0E1E3F2E080E23E
:102BA000DF011D928A95E9F70EE411E08AE4E82E30
:102BB00081E0F82E97E0992E88248394D801ED9136
:102BC0008D01D7016D917D01620F732F711D6F56BD
:102BD0007D4FF0E0EF5CFD4F50E040E0792C741A3F
:102BE000A82C042E01C0AA0C0A94EAF76B0180E01D
:102BF000D6019D916D019A21A72DA81BA770BA2E11
:102C00000A2E000CBB0B692E01C0660CBA94EAF7C1
:102C1000B62CB195A195B109A770BB2701C09695B7
:102C2000AA95EAF7A62DA92B90819A2B90838F5F06
:102C30008830F1F64F5F5F4F31964830510571F69D
:102C400081E00235180709F0B9CF60E270E081E356
:102C500092E00E94C014882361F0C095D0958091C5
:102C6000560290915702C823D923D0935702C0939C
:102C70005602CDB7DEB7EEE00C94E9249295990F99
:102C8000907690932D019801369527953695279546
:102C900020933001915E90932E01209331016ACFF1
:102CA00060E270E0C9018F569D4FD3CF80915402EE
:102CB00090915502911103C091E0892708958823CE
:102CC00069F062E070E084E192E00E949514811165
:102CD00003C08091540208951092540280915402CE
:102CE000EBCF81E008950E94711608950F931F9312
:102CF00080915502882379F18091910490919204FA
:102D00000E94151BC29760F00E94FD1A90939204D6
:102D10008093910460E080E00E943A150E9473164F
:102D20000E947615809154028823A9F00E94091B05
:102D3000009193041091940420919504309196048D
:102D4000601B710B820B930B6F3F7F4F8F4F9F4721
:102D500010F40E9456161F910F910895CF93DF93A0
:102D6000EC01FB018581882309F4D2C09E01305714
:102D70002332310508F0B2C00E94640C90937A02AD
:102D800080937902FE01E150F047E232F10520F430
:102D9000E358FA4D0C94C3248091790281608093AA
:102DA000790293C080917A02886080937A028DC004
:102DB000809179028260F3CF809179028460EFCFB5
:102DC000809179028860EBCF80917A028160EDCFAB
:102DD00080917A028260E9CF809179028061DFCFB1
:102DE000809179028062DBCF809179028064D7CFB5
:102DF0000E949506809179028068D1CF80917902F6
:102E00008C60CDCF80917A028360CFCF80917902A0
:102E10008E7FC5CF80917A02877FC7CF809179025C
:102E20008D7FBDCF809179028B7FB9CF8091790260
:102E3000877FB5CF80917A028E7FB7CF80917A025B
:102E40008D7FB3CF809179028F7EA9CF8091790257
:102E50008F7DA5CF809179028F7BA1CF0E949506AF
:102E6000809179028F779BCF80917902837F97CF72
:102E700080917A028C7F99CF8091790282FB992789
:102E800090F921E0922790FB82F990FB83F987CF9C
:102E900080917A02982F909591708E7F892B90FB6C
:102EA00081F983CF90917902892F8F7B96FF80647F
:102EB00076CF0E94950690917902892F97FB87F92A
:102EC00080586DCF81E00E94F00C80917902909142
:102ED0007A020E94690C0E94950680E0DF91CF91F2
:102EE000089580E0F0CF90917902892F8F7E94FF32
:102EF000806155CF90917902892F8E7F90FF8160FC
:102F00004ECF90917A02892F877F93FF88604DCFB3
:102F100081E0E4CF8FE891E00197F1F700C0000075
:102F2000089581E00895CF93DF93D62F0E949117E3
:102F3000C82F882341F06AE070E08EE4D11101C00F
:102F40008BE40E94D0038C2FDF91CF9108950E94D3
:102F5000151208950F931F93CF93DF939091020161
:102F600081E0982790935C02282F291B20935B0215
:102F70009091020180935D029091020180935A0228
:102F800080910201811106C084EF8093330185EFA7
:102F90008093320120913301E22FE295EF70F0E04F
:102FA00061A12F7081E090E0AC0101C0440F2A952F
:102FB000EAF7342F3095362331A322A1242B22A304
:102FC00020913201E22FE295EF70F0E031A12F70F5
:102FD00001C0880F2A95EAF7982F9095932391A323
:102FE00092A1892B82A30E948A1760915D0240E61C
:102FF00052E0C3E3D1E002E311E0FA0126C02991D7
:10300000822F82958F7090E0DC0190968C9190E0F9
:103010002F7002C0959587952A95E2F78170D801A7
:103020009D918D01292F22952F7030E0D901909626
:103030002C9130E09F7002C0359527959A95E2F764
:1030400090E020FD92E0892B81938E2F841B8617C0
:10305000B0F2DF91CF911F910F910895B0E0A0E001
:10306000E4E3F8E10C94D32410E000E082E0C82E01
:10307000D12C80915D02181730F0802FCDB7DEB7CC
:10308000E8E00C94EF24C12FD0E0FE01ED5CFE4F90
:103090008081E82FE295EF70F0E0E0A1F0E08F7022
:1030A00002C0F595E7958A95E2F7E170DE01AE5C26
:1030B000BE4F4C91A42FA295AF70B0E090968C912A
:1030C00090E04F7002C0959587954A95E2F780FD94
:1030D0004DC080E08E2BDE01A05ABD4FEC919E2F9B
:1030E0009370981709F440C0EE0FEE0FE82BEC93A5
:1030F000E0905C02E10EEF70F0E0EE5AFE4FC25A33
:10310000DD4F80819881890F8883F12C823084F093
:10311000EE2DF0E0E85AFD4F80818F5F80830E94A2
:10312000A717F82E882321F160E08E2D0E949317B7
:1031300088818F3F84F4EE2DF0E0E85AFD4F8081C6
:10314000815080830E94A717F82E8823A1F061E0A8
:103150008E2D0E9493178881082E000C990BB601C2
:103160000E94AF2488830F291F5F83CF82E0B2CFF4
:10317000FF24F394DDCFFF24F394EDCF40915D0263
:1031800050E060915C0270E0685A7D4F0E940D250E
:103190000895B0E0A0E0EFECF8E10C94D3246C01CA
:1031A000D0E080E090915A02D91740F081110E943E
:1031B0002D0DCDB7DEB7E8E00C94EF24F0905B0264
:1031C000FD0E0F2D10E0085A1D4FF601ED0FF11DF9
:1031D000C081F8019081C91BEC2E1E1444F09C2F75
:1031E000C7FD90E0C91BC1110DC0DF5FDBCFEA94C2
:1031F000F80180818F5F808360E08F2D0E9493179C
:1032000081E0EBCFCF5FF80180818150808361E066
:103210008F2D0E94931781E0E6CFCF93DF93EB01D0
:1032200086319C4711F50E944E0B9D81992399F0A0
:103230008A7A91E009F490E090936202811109C0CA
:1032400089E20E94000B0E94A70B80E0DF91CF91E2
:10325000089585E3F6CF80916202811104C089E26E
:103260000E94080BF0CF85E3FBCF81E0EFCF0F93F7
:103270001F93CF93DF93C42FD22FFC018581882326
:10328000C9F0409365020E94FD1A909364028093F6
:10329000630280E28C0F883040F4C77081E001C087
:1032A000880FCA95EAF70E94F103DF91CF911F9131
:1032B0000F91089510916502141332C0809163023A
:1032C000909164020E94151B8436910548F5C0E276
:1032D000CD0F1D17B9F080E2810F883040F41770D0
:1032E00081E001C0880F1A95EAF70E94F803C83000
:1032F00048F481E09D2F977001C0880F9A95EAF7F6
:103300000E94F103802F0E94E803C83070F6D77046
:1033100081E001C0880FDA95EAF70E94F803C5CF73
:1033200080E28C0F883008F6C77081E001C0880FFA
:10333000CA95EAF7F2CF0F93DB0188519C4787309B
:103340009105A0F5FC01E156FA4D0C94C32406E268
:1033500021EE41EE6AE17CE7CD010E94371980E061
:103360000F91089507E225EE45EE6BE17CE7F4CF7F
:1033700006E221EE40EE68E17CE7EECF07E225EEC3
:1033800044EE69E17CE7E8CF06E221EE42EE6CE133
:103390007CE7E2CF07E225EE46EE6DE17CE7DCCF8D
:1033A00008E221E045EE6EE17CE7D6CF15968C91E0
:1033B000882319F010926502D3CF81E0D1CF90938A
:1033C00068028093670208950E941512811103C05C
:1033D000809166020895E0916702F091680230974B
:1033E00029F00190F081E02D0995089580E008957D
:1033F000E0916702F0916802309721F00280F3813A
:10340000E02D099508959C012E5F3F4FAC01485F68
:103410005F4F80E02417350709F40895F901919171
:103420009F019923B9F38F5FF5CF662349F0FC0123
:10343000329608962191261729F0E817F907D1F757
:1034400080E0089581E008959C01FC0132969FEF91
:1034500080E04191461751F09F3F19F4411101C09E
:10346000982F8F5F8630A9F79F3F09F40895290FA1
:10347000311D97FD3A95F90162830895FC0132965A
:1034800008962191261303C0DF0111971C92E817BB
:10349000F907B9F708950E94241A08950E943E1A68
:1034A0000895029626E0FC0111922A95E9F7089505
:1034B00008950E94581A0895811106C081E08093F2
:1034C00069020E94591A089582E0F9CF83E080933F
:1034D00069020E94591A08950E945C1A089581E0B9
:1034E000809369020E94591A08950E946F1A0895E4
:1034F000089508950E94791A0895089508950E94E4
:10350000781A0895CF930E947D1A0E9499110E9403
:103510007E1AC0E08C2F0E947210811105C0CF5F0F
:10352000CA30C1F7CF91089581E0FCCF85B780689C
:1035300085BF85B7806885BF08951F921FB61F920B
:1035400011248F939F93AF93BF9380916A0281114F
:1035500013C08091990490919A04A0919B04B0911A
:103560009C044196A11DB11D8093990490939A04E7
:10357000A0939B04B0939C04BF91AF919F918F91B6
:103580001F901FBE1F9018958091A104843031F1C7
:103590000E947F0210926A0288E190E020E40FB658
:1035A000F894A895809360000FBE2093600083B7C5
:1035B000817F846083BF83B7816083BF789488955F
:1035C00083B78E7F83BF0FB6F894A8958091600073
:1035D000886180936000109260000FBE08950E9481
:1035E00095060E948602089582E084BD93E095BD11
:1035F0009AEF97BD80936E0008952FB7F89480914D
:10360000990490919A04A0919B04B0919C042FBFBF
:1036100008952FB7F8946091990470919A0480915D
:103620009B0490919C042FBF08959C014FB7F89480
:103630008091990490919A04A0919B04B0919C046C
:103640004FBF821B930B0895CF92DF92EF92FF92B0
:103650002FB7F894C0909904D0909A04E0909B04FE
:10366000F0909C042FBFA7019601261B370B480B37
:10367000590BCA01B901FF90EF90DF90CF900895E8
:1036800078941F921FB61F9211248F939F93AF932C
:10369000BF938091990490919A04A0919B04B0915A
:1036A0009C040196A11DB11D8093990490939A04E6
:1036B000A0939B04B0939C04BF91AF919F918F9175
:1036C0001F901FBE1F90189587E797E790930108FA
:1036D0008093000888E19AE00FB6F894A89580934B
:1036E00060000FBE90936000FFCF88E19AE00FB6B4
:1036F000F894A895809360000FBE90936000FFCF70
:103700001092B9008CE08093B8000895B0E0A0E07A
:10371000ECE8FBE10C94D024B82EEB010E94FD1ADA
:103720006C01EE24E394F12CC431D10560F025E066
:10373000E22EF12CCF3FDC0731F0CE0164E170E0E6
:103740000E949B247B0184EAA82E94E8992E109273
:10375000BC00A092BC000E94FD1A8C018091BC00AC
:1037600087FF0DC08091B900887F8830F9F0809183
:10377000B900887F8031D1F00FEF1FEF08C0C8017A
:103780000E94151BE816F90648F70EEF1FEFCF3F12
:10379000DC07E9F2C6010E94151BC817D907B8F665
:1037A000C801CDB7DEB7EBE00C94EC24B092BB00BF
:1037B0009092BC000E94FD1A8C018091BC0087FF92
:1037C0000AC08091B900887F883111F08034A1F659
:1037D00010E000E0E5CFC8010E94151BE816F906CD
:1037E00060F7D3CF0F931F93CF93DF93EB018093B9
:1037F000BB0084E88093BC000E94FD1A8C0180917C
:10380000BC0087FF11C02091B900287F81E090E0C3
:10381000283211F490E080E0919581959109DF9133
:10382000CF911F910F910895CF3FDC0741F3C8015D
:103830000E94151BC817D90710F78EEF9FEFEFCF27
:10384000B0E0A0E0E6E2FCE10C94D3246B018A0135
:103850007901B9010E94861BE6010C0D1D1DC017E0
:10386000D10711F097FF08C024E92093BC00CDB721
:10387000DEB7E8E00C94EF24B70189910E94F21BB7
:10388000EECFB0E0A0E0E7E4FCE10C94D324C62F37
:103890006A017901B8010E94861B97FD0CC0B8012E
:1038A0008C2F0E94F21BE601EC0CFD1CCE15DF05EF
:1038B00011F097FF08C024E92093BC00CDB7DEB714
:1038C000E8E00C94EF24B80189910E94F21BEECF3E
:1038D00084E98093BC0008958EE14A9B02C0815028
:1038E000E1F74A9BFECF08955A9880E28A95F1F756
:1038F0005A9A0895FC013BE03A95F1F798E020E0F0
:1039000080E031E040E14A95F1F7880F4A9B02C020
:103910008160232742E04A95F1F7000040E14A9593
:10392000F1F7915079F790E19A95F1F799B132E07A
:103930003A95F1F7000040E14A95F1F792FB99279B
:1039400090F992272081920F90830895A1E0B0E032
:10395000ECEAFCE10C94D52419828C017C01E60E82
:10396000F11C0E151F0541F481E09981911180E051
:103970002196E6E00C94F1240E946C1CCE01019685
:103980000E947A1CF80181938F01EBCF529A5A9AC8
:10399000089552985A9AEA9AE9E6F0E080818F7C7D
:1039A000808308956150770B91E001C0990F6A956B
:1039B000EAF720E031E0911108C0222391F05A9AF1
:1039C00080E28A95F1F75A980895492F482339F0F3
:1039D0005A9A232740E24A95F1F79695ECCF5A98E8
:1039E000F9CF5A98EDCFFF920F931F93CF93DF93A8
:1039F000EC018C01060F111DC017D10729F4CDB7BA
:103A0000DEB7E5E00C94F224F9900E94741C68E0A3
:103A10008F2D0E94D21CF0CF1F920F920FB60F92E3
:103A200011240F931F932F933F934F935F936F93A3
:103A30007F938F939F93AF93BF93EF93FF93CF9316
:103A4000DF930F92CDB7DEB719820E946C1CCE01B6
:103A500001960E947A1C082F069506950695282F38
:103A600022952570902F9570290F922F937026958F
:103A70002695920F982797708981982B09F05CC042
:103A8000063008F059C080E18A95F1F75A9A529AA7
:103A900082E08A95F1F700C05A9888E0089F80017B
:103AA0001124D801AD5FBE4F1696ED91FC9117978A
:103AB0003097A9F0609148017091490114962D91B9
:103AC0003C911597260F371F11968D919C91129757
:103AD000680F791F13964C9113978C910995F801F3
:103AE000ED5FFE4F6381662351F0209148013091D4
:103AF000490184819581820F931F0E94F31C0E94CB
:103B0000741C80E18A95F1F75A9852985A9A80E18C
:103B10008A95F1F7F801ED5FFE4F6081662351F061
:103B2000209148013091490181819281820F931F38
:103B30000E94A61C0E946C1C0F90DF91CF91FF91F8
:103B4000EF91BF91AF919F918F917F916F915F9115
:103B50004F913F912F911F910F910F900FBE0F909A
:103B60001F9018950F931F93CF93DF93EC01069747
:103B70000CF04CC0F894529A5A9885E08A95F1F767
:103B800000009C2F969595708C2F8570980F892F2B
:103B900083709695969523E0CC0FDD1F2A95E1F76B
:103BA000980F8E01092B0E94741C00C068E0802FC2
:103BB0000E94D21C80E18A95F1F752985A9A4A9B4A
:103BC0001EC087E090E04A991CC0FE01ED5FFE4FE9
:103BD00063816623F9F02091480130914901848185
:103BE0009581820F931F0E94A61C811113C0529AC7
:103BF0005A9A7894DF91CF911F910F91089500C048
:103C0000DECF019729F4529A5A9A789480E0F2CF45
:103C100000C0D9CF0E946C1C80E28A95F1F75A98B7
:103C2000529A80E18A95F1F7CD5FDE4F6881662375
:103C300051F0209148013091490189819A81820F88
:103C4000931F0E94F31C0E94741C789481E0D2CFD1
:103C5000809173020895089508959B01BA0190918F
:103C6000A1049430E9F48F708093E9009FEF809174
:103C7000E800915085FD06C085ED8A95F1F70000BA
:103C80009111F5CF8091E80085FF0AC050E040E037
:103C9000C9010E9402208091E8008E778093E8009D
:103CA0000895CF93DF93EC0148E050E0BC0181E040
:103CB0000E942D1E88E0FE01ABE6B2E001900D925D
:103CC0008A95E1F7DF91CF9108958091A004811149
:103CD00009C00E9492210E94EF218091E20084603D
:103CE0008093E20008951092A00408950E946F1A34
:103CF000089560919D0481E0611101C080E00E94FF
:103D0000661A08959091A10481E0943009F080E052
:103D100060919D040E946C1A089542E061EC81E07C
:103D20000E940E219091A10481E0943009F080E07E
:103D300060919D040E945C1A08958091A3048330D1
:103D400009F461C030F48130D1F1823009F49EC0B1
:103D500008958A3009F48AC08B3009F46FC0893025
:103D600009F050C08091A204813209F04BC08091CB
:103D7000A6049091A704892B09F044C08091E80023
:103D8000877F8093E8008091E80082FF37C09091A0
:103D9000F3008091F200029731F48091F1008130BC
:103DA00011F0863021F48091F100809373028091AC
:103DB000E8008B778093E8000E94422123C0809125
:103DC000A204813AF9F48091E800877F8093E800AB
:103DD0008091A6049091A704892B61F468E08BE69A
:103DE00092E070E00E9451208091E8008B778093F0
:103DF000E800089560E090E080E0F3CF8091A104B6
:103E00008111C1CF08958091A204813AD9F78091A0
:103E1000A6049091A704892BA9F78091E800877FD9
:103E20008093E8008091E80080FFFCCF80913C0106
:103E30008093F1008091E8008E77BCCF8091A2043E
:103E4000813201F78091A6049091A704892BD1F6C5
:103E50008091E800877F8093E8000E944221809152
:103E6000A40480933C010E94950608958091A204C9
:103E7000813241F68091E800877F8093E8000E94BC
:103E800042218091A5048093740208958091A20438
:103E9000813A09F0B7CF8091E800877F8093E800EE
:103EA0008091E80080FFFCCF80917402C1CF84B77D
:103EB000877F84BF0FB6F894A895809160008861D1
:103EC00080936000109260000FBE80E890E00FB613
:103ED000F89480936100909361000FBE0E94751A60
:103EE00008950E9492210E94EF21E2EEF0E080818D
:103EF0008460808378940E946E24089584E391E026
:103F00000E94DF1908958091A104853031F48091D9
:103F1000A104853019F00E94EF1A08950E94C41A76
:103F200080919F04882399F30E94821A882379F351
:103F30000E94EC1F0E949506EACF08959A014091D5
:103F4000A8045091A9040E94A61F0895492F55273F
:103F500043305105C9F058F44130510599F14230D0
:103F60005105A9F190E080E050E040E01DC04132F1
:103F7000510509F142325105A9F784E490E04CE97A
:103F800052E0672B79F710C099278130910581F0B5
:103F9000009729F0029731F7EAE3F2E002C0E4E685
:103FA000F2E0849190E0AF01F901518340830895DC
:103FB000E8E4F2E0F6CF89E090E04AE752E0672BD0
:103FC00089F6F2CF82E190E04AE852E0EDCF82E25A
:103FD00090E048E652E0E8CF80E189BD82E189BD0A
:103FE00009B400FEFDCF8091D8008F7D8093D8006A
:103FF0008091E00082608093E0008091E00081FD8C
:10400000FCCF0895AF92BF92CF92DF92FF920F93B1
:104010001F93CF93DF936C01EB018A010E94612112
:10402000F82E811123C00115110539F0F8018081A6
:104030009181C81BD90BC80ED91EB12CA12C209779
:10404000A9F08091E80085FD22C08091E8008E777C
:104050008093E80001151105A1F0F801808191819C
:10406000A80EB91EB182A08285E0F82E8F2DDF91B7
:10407000CF911F910F91FF90DF90CF90BF90AF90A5
:1040800008950E9461218823D1F2F82EEFCFF60126
:1040900081916F018093F1002197FFEFAF1ABF0A62
:1040A000CECFFC018091A8049091A90486179707B0
:1040B000A0F06115710529F49091E8009E77909326
:1040C000E80090E06115710551F4911108C08091EC
:1040D000E80082FF34C080E00895BC01F2CF8091F7
:1040E000A1048823C1F18530C1F18091E80083FDEE
:1040F00030C08091E80082FDEACF8091E80080FF27
:10410000E1CF8091F3002091F200382F6115710505
:1041100019F02830310558F091E02830310509F0C8
:1041200090E02091E8002E772093E800CBCF81919A
:104130008093F100615071092F5F3F4FE7CF80916D
:10414000A104882341F0853041F08091E80083FF8D
:10415000BECF81E0089582E0089583E00895FC01D8
:104160008091A8049091A90486179707A0F0611583
:10417000710529F48091E8008E778093E80090E043
:104180006115710551F4911108C08091E80082FF1A
:1041900035C080E00895BC01F2CF8091A10488234E
:1041A000C9F18530C9F18091E80083FD31C080916B
:1041B000E80082FDEACF8091E80080FFE1CF8091A6
:1041C000F3002091F200382F6115710519F02830A5
:1041D000310558F091E02830310509F090E08091E8
:1041E000E8008E778093E800CBCF84918093F10034
:1041F0003196615071092F5F3F4FE6CF8091A10446
:10420000882341F0853041F08091E80083FFBDCFE5
:1042100081E0089582E0089583E00895982F973013
:1042200028F08F708093E90081E008959093E90071
:10423000242F762F50E0981731F07091EC002091E8
:10424000ED005091F00021FD02C09F5FE8CF30915A
:10425000EB003E7F3093EB003091ED003D7F3093DB
:10426000ED003091EB0031603093EB007093EC0087
:104270002093ED005093F0002091EE0027FDE5CF54
:1042800080E008958091A20487FF13C08091E80028
:1042900082FF06C08091E8008B778093E80004C01D
:1042A0008091A1048111F2CF08958091A104882307
:1042B000D9F38091E80080FFF8CF8091E8008E77F5
:1042C000ECCF2091E4003091E50095E6A901209122
:1042D000EC00822F817020FF06C08091E80080FFF3
:1042E00006C080E008952091E80022FD1AC0809168
:1042F000A104882389F0853089F08091EB0085FD49
:104300000FC02091E4003091E50042175307F9F205
:104310009150E1F684E0089582E0089583E00895E5
:1043200081E008950E9401220E940922E0EEF0E05F
:10433000808181608083E8EDF0E080818F778083E9
:1043400019BCA7EDB0E08C918E7F8C9380818F7E1D
:1043500080831092A00408950F931F93CF93DF934F
:104360000E9401220E940922C8EDD0E088818F7747
:10437000888388818068888388818F7D888319BC41
:104380001092A10410929D0410929F0410929E041A
:1043900000EE10E0F80180818B7F8083888181604E
:1043A000888342E060E080E00E940E21E1EEF0E0D0
:1043B00080818E7F8083E2EEF0E080818160808367
:1043C000808188608083F80180818E7F80838881EE
:1043D00080618883DF91CF911F910F910895E8ED5F
:1043E000F0E080818F7E8083E7EDF0E08081816066
:1043F000808384E082BF81E08093A0040E94AC218E
:104400000895E8EDF0E080818E7F80831092E200D5
:1044100008951092DA001092E10008951F920F9211
:104420000FB60F9211242F933F934F935F936F9387
:104430007F938F939F93AF93BF93EF93FF9380915D
:10444000E10082FF0BC08091E20082FF07C08091F3
:10445000E1008B7F8093E1000E946D248091DA005F
:1044600080FF19C08091D80080FF15C08091DA00CC
:104470008E7F8093DA008091D90080FF96C080E122
:1044800089BD82E189BD09B400FEFDCF81E0809342
:10449000A1040E94651E8091E10080FF19C08091F7
:1044A000E20080FF15C08091E2008E7F8093E200E1
:1044B0008091E20080618093E2008091D800806268
:1044C0008093D80019BC85E08093A1040E94791ED6
:1044D0008091E10084FF2BC08091E20084FF27C01F
:1044E00080E189BD82E189BD89B5982F917080FFF7
:1044F000FBCF8091D8008F7D8093D8008091E10020
:104500008F7E8093E1008091E2008F7E8093E200B5
:104510008091E20081608093E20080919D04882375
:1045200009F449C084E08093A1040E94821E809116
:10453000E10083FF29C08091E20083FF25C08091C4
:10454000E100877F8093E10082E08093A1041092D4
:104550009D048091E1008E7F8093E1008091E200D4
:104560008E7F8093E2008091E20080618093E20080
:1045700042E060E080E00E940E218091F0008860BF
:104580008093F0000E94761EFF91EF91BF91AF9152
:104590009F918F917F916F915F914F913F912F915B
:1045A0000F900FBE0F901F90189519BC1092A10488
:1045B0000E94731E70CF8091E30087FD93E090937B
:1045C000A104B3CF1F920F920FB60F9211242F9315
:1045D0003F934F935F936F937F938F939F93AF938B
:1045E000BF93CF93DF93EF93FF93D091E900DF70F8
:1045F0008091EC00C82FC17080FDC0E81092E900E6
:104600008091F000877F8093F00078940E942623A9
:104610001092E9008091F00088608093F000CD2B2B
:10462000CF70C093E900FF91EF91DF91CF91BF91DF
:10463000AF919F918F917F916F915F914F913F913A
:104640002F910F900FBE0F901F901895AAE2B0E027
:10465000ECE2F3E20C94D82482EA94E02091F10099
:10466000FC012193CF01F4E08A3A9F07B9F70E9439
:104670009D1E8091E80083FF1EC18091A20490914D
:10468000A3049A3008F017C1E92FF0E0EA55FA4D7B
:104690000C94C324803899F0823809F00CC18091C1
:1046A000A6048F70873008F006C18093E9008091DE
:1046B000EB0085FB882780F91092E90006C0809105
:1046C0009E0490919F04911182609091E800977FE1
:1046D0009093E8008093F1001092F1008091E8003F
:1046E0008E77E5C0882309F4D3C0823009F0E3C097
:1046F0008091A4048111D6C08091A6048F702FEF01
:10470000280F263008F0D7C08093E9002091EB00F5
:1047100020FFC8C0933031F48091EB008062809319
:10472000EB00C0C09091EB0090619093EB0021E012
:1047300030E001C0220F8A95EAF72093EA00109238
:10474000EA008091EB008860EACF8111B4C010913B
:10475000A4041F778091E3008078812B8093E3008D
:104760008091E800877F8093E8000E944221809139
:10477000E80080FFFCCF8091E30080688093E30035
:1047800082E0111183E08093A10495C080588230AB
:1047900008F091C08091A4049091A5048C3D23E081
:1047A0009207A1F583E08A838AE289834FB7F89460
:1047B000DE01139620E03EE051E2E32FF0E050935B
:1047C0005700E49120FF03C0E295EF703F5FEF7068
:1047D0008E2F90E0EA30C0F0C7968D939D932F5FA7
:1047E000243159F74FBF8091E800877F8093E8001C
:1047F0006AE270E0CE0101960E9451208091E800AB
:104800008B778093E80057C0C096E7CF6091A604ED
:104810007091A704AE014F5F5F4F0E949E1FBC01C5
:10482000892B09F448C09091E800977F9093E800A5
:1048300089819A810E94AF20E1CF8038E1F5809193
:10484000E800877F8093E80080919D048093F100C9
:1048500045CF811130C09091A404923060F58091D1
:10486000E800877F8093E80090939D040E94422196
:1048700080919D04882311F084E005C08091E300BD
:1048800087FDFACF81E08093A1040E948D1E13C0A2
:104890008091A404813079F481E0933009F080E0C4
:1048A00080939F041092E9008091E800877F8093B5
:1048B000E8000E9442218091E80083FF0AC08091B5
:1048C000E800877F8093E8008091EB00806280930E
:1048D000EB00AA96E3E00C94F4240895CF93809122
:1048E000A1048823A1F0C091E900CF709091EC0061
:1048F000892F817090FD80E8C82B1092E90080918B
:10490000E80083FD0E942623CF70C093E900CF9179
:1049100008950E9492211092A1040895E8EDF0E01C
:104920008081806180838AE18A95F1F700C080915F
:10493000D90081700895AA1BBB1B51E107C0AA1FB3
:10494000BB1FA617B70710F0A61BB70B881F991F30
:104950005A95A9F780959095BC01CD01089597FBD4
:10496000072E16F4009407D077FD09D00E949B24EF
:1049700007FC05D03EF4909581959F4F0895709562
:1049800061957F4F0895EE0FFF1F0590F491E02D84
:1049900009942F923F924F925F926F927F928F92E3
:1049A0009F92AF92BF92CF92DF92EF92FF920F93BE
:1049B0001F93CF93DF93CDB7DEB7CA1BDB0B0FB6C8
:1049C000F894DEBF0FBECDBF09942A883988488885
:1049D0005F846E847D848C849B84AA84B984C8841B
:1049E000DF80EE80FD800C811B81AA81B981CE0F12
:1049F000D11D0FB6F894DEBF0FBECDBFED010895F7
:104A0000FB01DC0104C08D910190801921F441501B
:104A10005040C8F7881B990B0895FB01DC0102C0C8
:104A200001900D9241505040D8F70895F999FECF6A
:104A300092BD81BDF89A992780B50895A8E1B0E0AC
:104A400042E050E00C945A25DC01A40FB51F415000
:104A5000504048F0CB01840F951F2E910E943525C0
:104A600041505040D0F70895262FF999FECF92BDBE
:104A700081BDF89A019700B4021639F01FBA20BD23
:104A80000FB6F894FA9AF99A0FBE08950396272F55
:104A90000E9435250E943425252F0E943525242F7C
:104AA0000C9435250196272F0E9435250C9434252A
:104AB000DC01CB01FC01F999FECF06C0F2BDE1BDDE
:104AC000F89A319600B40D9241505040B8F70895CD
:104AD000F894FFCF410441049C049C0471047104C8
:104AE000EF05710407057A058A058A05F805190698
:104AF000020605060C060806110606177A170E1799
:104B0000D816DC161217E01616172217EC167317B4
:104B1000F0162617F4162A175217F8162E175917DB
:104B2000FE1634173C17E4161A17E8161E1702175C
:104B30003817481762177117D2160A178117B81954
:104B4000BE19A719B219C419CA19D0194A23722358
:104B50005B2472235B24A523C6235B241D24292404
:104B6000E501010000000100000000000000050157
:104B70000000000000000106000000000000010726
:104B800000000004080000000000000021007F2257
:104B90000003F4F5281E511E2C1E2B1E01F6F731C2
:104BA0003332366697C634351002000810181810D4
:104BB000080000FF0100010000FFFF0000010001EC
:024BC000FF00F4
:00000001FF
